{"abi":[{"type":"constructor","inputs":[],"stateMutability":"nonpayable"},{"type":"function","name":"UPGRADE_INTERFACE_VERSION","inputs":[],"outputs":[{"name":"","type":"string","internalType":"string"}],"stateMutability":"view"},{"type":"function","name":"getAgentValidations","inputs":[{"name":"agentId","type":"uint256","internalType":"uint256"}],"outputs":[{"name":"","type":"bytes32[]","internalType":"bytes32[]"}],"stateMutability":"view"},{"type":"function","name":"getIdentityRegistry","inputs":[],"outputs":[{"name":"","type":"address","internalType":"address"}],"stateMutability":"view"},{"type":"function","name":"getSummary","inputs":[{"name":"agentId","type":"uint256","internalType":"uint256"},{"name":"validatorAddresses","type":"address[]","internalType":"address[]"},{"name":"tag","type":"bytes32","internalType":"bytes32"}],"outputs":[{"name":"count","type":"uint64","internalType":"uint64"},{"name":"avgResponse","type":"uint8","internalType":"uint8"}],"stateMutability":"view"},{"type":"function","name":"getValidationStatus","inputs":[{"name":"requestHash","type":"bytes32","internalType":"bytes32"}],"outputs":[{"name":"validatorAddress","type":"address","internalType":"address"},{"name":"agentId","type":"uint256","internalType":"uint256"},{"name":"response","type":"uint8","internalType":"uint8"},{"name":"responseHash","type":"bytes32","internalType":"bytes32"},{"name":"tag","type":"bytes32","internalType":"bytes32"},{"name":"lastUpdate","type":"uint256","internalType":"uint256"}],"stateMutability":"view"},{"type":"function","name":"getValidatorRequests","inputs":[{"name":"validatorAddress","type":"address","internalType":"address"}],"outputs":[{"name":"","type":"bytes32[]","internalType":"bytes32[]"}],"stateMutability":"view"},{"type":"function","name":"getVersion","inputs":[],"outputs":[{"name":"","type":"string","internalType":"string"}],"stateMutability":"pure"},{"type":"function","name":"initialize","inputs":[{"name":"_identityRegistry","type":"address","internalType":"address"}],"outputs":[],"stateMutability":"nonpayable"},{"type":"function","name":"owner","inputs":[],"outputs":[{"name":"","type":"address","internalType":"address"}],"stateMutability":"view"},{"type":"function","name":"proxiableUUID","inputs":[],"outputs":[{"name":"","type":"bytes32","internalType":"bytes32"}],"stateMutability":"view"},{"type":"function","name":"renounceOwnership","inputs":[],"outputs":[],"stateMutability":"nonpayable"},{"type":"function","name":"transferOwnership","inputs":[{"name":"newOwner","type":"address","internalType":"address"}],"outputs":[],"stateMutability":"nonpayable"},{"type":"function","name":"upgradeToAndCall","inputs":[{"name":"newImplementation","type":"address","internalType":"address"},{"name":"data","type":"bytes","internalType":"bytes"}],"outputs":[],"stateMutability":"payable"},{"type":"function","name":"validationRequest","inputs":[{"name":"validatorAddress","type":"address","internalType":"address"},{"name":"agentId","type":"uint256","internalType":"uint256"},{"name":"requestUri","type":"string","internalType":"string"},{"name":"requestHash","type":"bytes32","internalType":"bytes32"}],"outputs":[],"stateMutability":"nonpayable"},{"type":"function","name":"validationResponse","inputs":[{"name":"requestHash","type":"bytes32","internalType":"bytes32"},{"name":"response","type":"uint8","internalType":"uint8"},{"name":"responseUri","type":"string","internalType":"string"},{"name":"responseHash","type":"bytes32","internalType":"bytes32"},{"name":"tag","type":"bytes32","internalType":"bytes32"}],"outputs":[],"stateMutability":"nonpayable"},{"type":"function","name":"validations","inputs":[{"name":"","type":"bytes32","internalType":"bytes32"}],"outputs":[{"name":"validatorAddress","type":"address","internalType":"address"},{"name":"agentId","type":"uint256","internalType":"uint256"},{"name":"response","type":"uint8","internalType":"uint8"},{"name":"responseHash","type":"bytes32","internalType":"bytes32"},{"name":"tag","type":"bytes32","internalType":"bytes32"},{"name":"lastUpdate","type":"uint256","internalType":"uint256"}],"stateMutability":"view"},{"type":"event","name":"Initialized","inputs":[{"name":"version","type":"uint64","indexed":false,"internalType":"uint64"}],"anonymous":false},{"type":"event","name":"OwnershipTransferred","inputs":[{"name":"previousOwner","type":"address","indexed":true,"internalType":"address"},{"name":"newOwner","type":"address","indexed":true,"internalType":"address"}],"anonymous":false},{"type":"event","name":"Upgraded","inputs":[{"name":"implementation","type":"address","indexed":true,"internalType":"address"}],"anonymous":false},{"type":"event","name":"ValidationRequest","inputs":[{"name":"validatorAddress","type":"address","indexed":true,"internalType":"address"},{"name":"agentId","type":"uint256","indexed":true,"internalType":"uint256"},{"name":"requestUri","type":"string","indexed":false,"internalType":"string"},{"name":"requestHash","type":"bytes32","indexed":true,"internalType":"bytes32"}],"anonymous":false},{"type":"event","name":"ValidationResponse","inputs":[{"name":"validatorAddress","type":"address","indexed":true,"internalType":"address"},{"name":"agentId","type":"uint256","indexed":true,"internalType":"uint256"},{"name":"requestHash","type":"bytes32","indexed":true,"internalType":"bytes32"},{"name":"response","type":"uint8","indexed":false,"internalType":"uint8"},{"name":"responseUri","type":"string","indexed":false,"internalType":"string"},{"name":"responseHash","type":"bytes32","indexed":false,"internalType":"bytes32"},{"name":"tag","type":"bytes32","indexed":false,"internalType":"bytes32"}],"anonymous":false},{"type":"error","name":"AddressEmptyCode","inputs":[{"name":"target","type":"address","internalType":"address"}]},{"type":"error","name":"ERC1967InvalidImplementation","inputs":[{"name":"implementation","type":"address","internalType":"address"}]},{"type":"error","name":"ERC1967NonPayable","inputs":[]},{"type":"error","name":"FailedCall","inputs":[]},{"type":"error","name":"InvalidInitialization","inputs":[]},{"type":"error","name":"NotInitializing","inputs":[]},{"type":"error","name":"OwnableInvalidOwner","inputs":[{"name":"owner","type":"address","internalType":"address"}]},{"type":"error","name":"OwnableUnauthorizedAccount","inputs":[{"name":"account","type":"address","internalType":"address"}]},{"type":"error","name":"UUPSUnauthorizedCallContext","inputs":[]},{"type":"error","name":"UUPSUnsupportedProxiableUUID","inputs":[{"name":"slot","type":"bytes32","internalType":"bytes32"}]}],"bytecode":{"object":"0x60a080604052346100c257306080525f51602061137a5f395f51905f525460ff8160401c166100b3576002600160401b03196001600160401b03821601610060575b6040516112b390816100c78239608051818181610a990152610b680152f35b6001600160401b0319166001600160401b039081175f51602061137a5f395f51905f525581527fc7f505b2f371ae2175ee4913f4499e1f2633a7b5936321eed1cdaeb6115181d290602090a15f80610041565b63f92ee8a960e01b5f5260045ffd5b5f80fdfe60806040526004361015610011575f80fd5b5f3560e01c80630d8e6e2c14610eec57806330e5993a14610d8f5780634bf3158c14610d1d5780634f1ef28614610aed57806352d1902d14610a87578063715018a614610a205780638d5d0c2d146109b05780638da5cb5b1461097c578063a0aa15a114610781578063aaf400c414610470578063ad3cb1cc14610431578063bc4d861b1461040a578063c4d66de81461025c578063e28c3802146101d7578063f2fde38b146101ac5763ff2febfc146100c9575f80fd5b346101a85760203660031901126101a8576004355f52600160205260405f206040516100f481610fcd565b6101a460018060a01b03835416918281526001840154926020820193845260ff600286015416946040830195865260ff6003820154936060810194855261015460056004850154946080840195865201549460a083019586521515611038565b60018060a01b03905116955196511692519051915192604051968796879260ff9060a095929897969360c0860199600180891b031686526020860152166040840152606083015260808201520152565b0390f35b5f80fd5b346101a85760203660031901126101a8576101d56101c8610f7e565b6101d0611161565b6110f0565b005b346101a85760203660031901126101a8576004355f52600160205260405f2060018060a01b038154166101a460018301549260ff6002820154169060038101546005600483015492015492604051968796879260ff9060a095929897969360c0860199600180891b031686526020860152166040840152606083015260808201520152565b346101a85760203660031901126101a857610275610f7e565b5f51602061125e5f395f51905f52549060ff8260401c1615916001600160401b03811680159081610402575b60011490816103f8575b1590816103ef575b506103e05767ffffffffffffffff1981166001175f51602061125e5f395f51905f5255826103b4575b506001600160a01b03168015610380576102f4611194565b6102fc611194565b610305336110f0565b61030d611194565b6bffffffffffffffffffffffff60a01b5f5416175f5561032957005b68ff0000000000000000195f51602061125e5f395f51905f5254165f51602061125e5f395f51905f52557fc7f505b2f371ae2175ee4913f4499e1f2633a7b5936321eed1cdaeb6115181d2602060405160018152a1005b60405162461bcd60e51b815260206004820152600c60248201526b626164206964656e7469747960a01b6044820152606490fd5b68ffffffffffffffffff191668010000000000000001175f51602061125e5f395f51905f5255826102dc565b63f92ee8a960e01b5f5260045ffd5b905015846102b3565b303b1591506102ab565b8491506102a1565b346101a8575f3660031901126101a8575f546040516001600160a01b039091168152602090f35b346101a8575f3660031901126101a8576101a4604051610452604082610ffc565b60058152640352e302e360dc1b602082015260405191829182610f27565b346101a85760803660031901126101a857610489610f7e565b6024356044356001600160401b0381116101a8576104ab903690600401610f51565b606435936001600160a01b031691821561074c575f858152600160205260409020546001600160a01b031661071e575f546040516331a9108f60e11b8152600481018690526001600160a01b0390911690602081602481855afa9081156106d1575f916106dc575b5060018060a01b03169081331491821561065b575b505015610625577f530436c3634a98e1e626b0898be2f1e9980cc1bd2a78c07a0aba52d0a48a50599160405161055d81610fcd565b848152600560208201878152604083015f8152606084015f815260ff60808601925f845260a08701944286528d5f52600160205260405f209760018060a01b039051166bffffffffffffffffffffffff60a01b895416178855516001880155511660ff60028701911660ff1982541617905551600385015551600484015551910155845f5260026020526105f48660405f206110b7565b835f5260036020526106098660405f206110b7565b61062060405192839260208452602084019161106e565b0390a4005b60405162461bcd60e51b815260206004820152600e60248201526d139bdd08185d5d1a1bdc9a5e995960921b6044820152606490fd5b602091925060446040518094819363e985e9c560e01b835260048301523360248301525afa9081156106d1575f91610696575b508680610528565b90506020813d6020116106c9575b816106b160209383610ffc565b810103126101a8575180151581036101a8578661068e565b3d91506106a4565b6040513d5f823e3d90fd5b90506020813d602011610716575b816106f760209383610ffc565b810103126101a857516001600160a01b03811681036101a85787610513565b3d91506106ea565b60405162461bcd60e51b815260206004820152600660248201526565786973747360d01b6044820152606490fd5b60405162461bcd60e51b815260206004820152600d60248201526c3130b2103b30b634b230ba37b960991b6044820152606490fd5b346101a85760603660031901126101a8576024356001600160401b0381116101a857366023820112156101a85780600401356001600160401b0381116101a8573660248260051b840101116101a857604435915f915f916004355f52600260205260405f20945f908654968415948515948315928315955b8b811061084e578a6001600160401b038b168015806108415761082d5760ff808260409404165b8351928352166020820152f35b634e487b7160e01b5f52601260045260245ffd5b506040915060ff5f610820565b610858818361108e565b90549060031b1c5f52600160205260405f20888a906108ff575b86896108f2575b816108ea575b50806108e2575b610894575b506001016107f9565b600260ff919c929b9c01541681018091116108ce576001600160401b03909a166001600160401b0381146108ce576001809101999061088b565b634e487b7160e01b5f52601160045260245ffd5b506001610886565b90508e61087f565b5087600483015414610879565b9298859c9b9a91995f9e939e9998979960018060a01b038c5416975b811015610966576024600582901b880101356001600160a01b038116908190036101a857881461094e576001018e61091b565b5093509890999a9b945060019c919c97959697610872565b50939099919a9b9c95509c919c97959697610872565b346101a8575f3660031901126101a8575f51602061121e5f395f51905f52546040516001600160a01b039091168152602090f35b346101a85760203660031901126101a8576004355f52600260205260405f206040519081602082549182815201915f5260205f20905f5b818110610a0a576101a4856109fe81870382610ffc565b60405191829182610f94565b82548452602090930192600192830192016109e7565b346101a8575f3660031901126101a857610a38611161565b5f51602061121e5f395f51905f5280546001600160a01b031981169091555f906001600160a01b03167f8be0079c531659141344cd1fd0a4f28419497f9722a3daafe3b4186f6b6457e08280a3005b346101a8575f3660031901126101a8577f00000000000000000000000000000000000000000000000000000000000000006001600160a01b03163003610ade5760206040515f51602061123e5f395f51905f528152f35b63703e46dd60e11b5f5260045ffd5b60403660031901126101a857610b01610f7e565b602435906001600160401b0382116101a857366023830112156101a857816004013590610b2d8261101d565b91610b3b6040519384610ffc565b808352602083019336602483830101116101a857815f926024602093018737840101526001600160a01b037f000000000000000000000000000000000000000000000000000000000000000016308114908115610cfb575b50610ade57610ba0611161565b6040516352d1902d60e01b81526001600160a01b0382169390602081600481885afa5f9181610cc7575b50610be25784634c9c8ce360e01b5f5260045260245ffd5b805f51602061123e5f395f51905f52869203610cb55750823b15610ca3575f51602061123e5f395f51905f5280546001600160a01b031916821790557fbc7cd75a20ee27fd9adebab32041f755214dbc6bffa90cc0225b39da2e5c2d3b5f80a2825115610c8a575f80916101d5945190845af43d15610c82573d91610c668361101d565b92610c746040519485610ffc565b83523d5f602085013e6111bf565b6060916111bf565b50505034610c9457005b63b398979f60e01b5f5260045ffd5b634c9c8ce360e01b5f5260045260245ffd5b632a87526960e21b5f5260045260245ffd5b9091506020813d602011610cf3575b81610ce360209383610ffc565b810103126101a857519086610bca565b3d9150610cd6565b5f51602061123e5f395f51905f52546001600160a01b03161415905084610b93565b346101a85760203660031901126101a8576001600160a01b03610d3e610f7e565b165f52600360205260405f206040519081602082549182815201915f5260205f20905f5b818110610d79576101a4856109fe81870382610ffc565b8254845260209093019260019283019201610d62565b346101a85760a03660031901126101a85760043560243560ff81168091036101a8576044356001600160401b0381116101a857610dd0903690600401610f51565b90916064359160843591855f52600160205260405f209360018060a01b03855416610dfc811515611038565b3303610eb75760648211610e87577ff224d3d5ad74301be48e4d51ca5f1b24c7946875887327585becc59165297dcf93600286018360ff19825416179055816003870155806004870155426005870155610e776001808060a01b0388541697015497604051958695865260806020870152608086019161106e565b91604084015260608301520390a4005b60405162461bcd60e51b81526020600482015260086024820152670726573703e3130360c41b6044820152606490fd5b60405162461bcd60e51b815260206004820152600d60248201526c3737ba103b30b634b230ba37b960991b6044820152606490fd5b346101a8575f3660031901126101a8576101a4604051610f0d604082610ffc565b60058152640312e302e360dc1b6020820152604051918291825b602060409281835280519182918282860152018484015e5f828201840152601f01601f1916010190565b9181601f840112156101a8578235916001600160401b0383116101a857602083818601950101116101a857565b600435906001600160a01b03821682036101a857565b60206040818301928281528451809452019201905f5b818110610fb75750505090565b8251845260209384019390920191600101610faa565b60c081019081106001600160401b03821117610fe857604052565b634e487b7160e01b5f52604160045260245ffd5b90601f801991011681019081106001600160401b03821117610fe857604052565b6001600160401b038111610fe857601f01601f191660200190565b1561103f57565b60405162461bcd60e51b81526020600482015260076024820152663ab735b737bbb760c91b6044820152606490fd5b908060209392818452848401375f828201840152601f01601f1916010190565b80548210156110a3575f5260205f2001905f90565b634e487b7160e01b5f52603260045260245ffd5b805468010000000000000000811015610fe8576110d99160018201815561108e565b819291549060031b91821b915f19901b1916179055565b6001600160a01b0316801561114e575f51602061121e5f395f51905f5280546001600160a01b0319811683179091556001600160a01b03167f8be0079c531659141344cd1fd0a4f28419497f9722a3daafe3b4186f6b6457e05f80a3565b631e4fbdf760e01b5f525f60045260245ffd5b5f51602061121e5f395f51905f52546001600160a01b0316330361118157565b63118cdaa760e01b5f523360045260245ffd5b60ff5f51602061125e5f395f51905f525460401c16156111b057565b631afcd79f60e31b5f5260045ffd5b906111e357508051156111d457602081519101fd5b63d6bda27560e01b5f5260045ffd5b81511580611214575b6111f4575090565b639996b31560e01b5f9081526001600160a01b0391909116600452602490fd5b50803b156111ec56fe9016d09d72d40fdae2fd8ceac6b6234c7706214fd39c1cd1e609a0528c199300360894a13ba1a3210667c828492db98dca3e2076cc3735a920a3ca505d382bbcf0c57e16840df040f15088dc2f81fe391c3923bec73e23a9662efc9c229c6a00a2646970667358221220ba166d8034d30d55cfc2af6c13eca2bb10a328caeca3ba52c86bbd645b55e38e64736f6c634300081c0033f0c57e16840df040f15088dc2f81fe391c3923bec73e23a9662efc9c229c6a00","linkReferences":{}},"methodIdentifiers":{"UPGRADE_INTERFACE_VERSION()":"ad3cb1cc","getAgentValidations(uint256)":"8d5d0c2d","getIdentityRegistry()":"bc4d861b","getSummary(uint256,address[],bytes32)":"a0aa15a1","getValidationStatus(bytes32)":"ff2febfc","getValidatorRequests(address)":"4bf3158c","getVersion()":"0d8e6e2c","initialize(address)":"c4d66de8","owner()":"8da5cb5b","proxiableUUID()":"52d1902d","renounceOwnership()":"715018a6","transferOwnership(address)":"f2fde38b","upgradeToAndCall(address,bytes)":"4f1ef286","validationRequest(address,uint256,string,bytes32)":"aaf400c4","validationResponse(bytes32,uint8,string,bytes32,bytes32)":"30e5993a","validations(bytes32)":"e28c3802"},"id":65}