{"abi":[{"type":"constructor","inputs":[],"stateMutability":"nonpayable"},{"type":"function","name":"UPGRADE_INTERFACE_VERSION","inputs":[],"outputs":[{"name":"","type":"string","internalType":"string"}],"stateMutability":"view"},{"type":"function","name":"appendResponse","inputs":[{"name":"agentId","type":"uint256","internalType":"uint256"},{"name":"clientAddress","type":"address","internalType":"address"},{"name":"feedbackIndex","type":"uint64","internalType":"uint64"},{"name":"responseUri","type":"string","internalType":"string"},{"name":"responseHash","type":"bytes32","internalType":"bytes32"}],"outputs":[],"stateMutability":"nonpayable"},{"type":"function","name":"getClients","inputs":[{"name":"agentId","type":"uint256","internalType":"uint256"}],"outputs":[{"name":"","type":"address[]","internalType":"address[]"}],"stateMutability":"view"},{"type":"function","name":"getIdentityRegistry","inputs":[],"outputs":[{"name":"","type":"address","internalType":"address"}],"stateMutability":"view"},{"type":"function","name":"getLastIndex","inputs":[{"name":"agentId","type":"uint256","internalType":"uint256"},{"name":"clientAddress","type":"address","internalType":"address"}],"outputs":[{"name":"","type":"uint64","internalType":"uint64"}],"stateMutability":"view"},{"type":"function","name":"getResponseCount","inputs":[{"name":"agentId","type":"uint256","internalType":"uint256"},{"name":"clientAddress","type":"address","internalType":"address"},{"name":"feedbackIndex","type":"uint64","internalType":"uint64"},{"name":"responders","type":"address[]","internalType":"address[]"}],"outputs":[{"name":"count","type":"uint64","internalType":"uint64"}],"stateMutability":"view"},{"type":"function","name":"getSummary","inputs":[{"name":"agentId","type":"uint256","internalType":"uint256"},{"name":"clientAddresses","type":"address[]","internalType":"address[]"},{"name":"tag1","type":"bytes32","internalType":"bytes32"},{"name":"tag2","type":"bytes32","internalType":"bytes32"}],"outputs":[{"name":"count","type":"uint64","internalType":"uint64"},{"name":"averageScore","type":"uint8","internalType":"uint8"}],"stateMutability":"view"},{"type":"function","name":"getVersion","inputs":[],"outputs":[{"name":"","type":"string","internalType":"string"}],"stateMutability":"pure"},{"type":"function","name":"giveFeedback","inputs":[{"name":"agentId","type":"uint256","internalType":"uint256"},{"name":"score","type":"uint8","internalType":"uint8"},{"name":"tag1","type":"bytes32","internalType":"bytes32"},{"name":"tag2","type":"bytes32","internalType":"bytes32"},{"name":"feedbackUri","type":"string","internalType":"string"},{"name":"feedbackHash","type":"bytes32","internalType":"bytes32"},{"name":"feedbackAuth","type":"bytes","internalType":"bytes"}],"outputs":[],"stateMutability":"nonpayable"},{"type":"function","name":"initialize","inputs":[{"name":"_identityRegistry","type":"address","internalType":"address"}],"outputs":[],"stateMutability":"nonpayable"},{"type":"function","name":"owner","inputs":[],"outputs":[{"name":"","type":"address","internalType":"address"}],"stateMutability":"view"},{"type":"function","name":"proxiableUUID","inputs":[],"outputs":[{"name":"","type":"bytes32","internalType":"bytes32"}],"stateMutability":"view"},{"type":"function","name":"readAllFeedback","inputs":[{"name":"agentId","type":"uint256","internalType":"uint256"},{"name":"clientAddresses","type":"address[]","internalType":"address[]"},{"name":"tag1","type":"bytes32","internalType":"bytes32"},{"name":"tag2","type":"bytes32","internalType":"bytes32"},{"name":"includeRevoked","type":"bool","internalType":"bool"}],"outputs":[{"name":"clients","type":"address[]","internalType":"address[]"},{"name":"scores","type":"uint8[]","internalType":"uint8[]"},{"name":"tag1s","type":"bytes32[]","internalType":"bytes32[]"},{"name":"tag2s","type":"bytes32[]","internalType":"bytes32[]"},{"name":"revokedStatuses","type":"bool[]","internalType":"bool[]"}],"stateMutability":"view"},{"type":"function","name":"readFeedback","inputs":[{"name":"agentId","type":"uint256","internalType":"uint256"},{"name":"clientAddress","type":"address","internalType":"address"},{"name":"index","type":"uint64","internalType":"uint64"}],"outputs":[{"name":"score","type":"uint8","internalType":"uint8"},{"name":"tag1","type":"bytes32","internalType":"bytes32"},{"name":"tag2","type":"bytes32","internalType":"bytes32"},{"name":"isRevoked","type":"bool","internalType":"bool"}],"stateMutability":"view"},{"type":"function","name":"renounceOwnership","inputs":[],"outputs":[],"stateMutability":"nonpayable"},{"type":"function","name":"revokeFeedback","inputs":[{"name":"agentId","type":"uint256","internalType":"uint256"},{"name":"feedbackIndex","type":"uint64","internalType":"uint64"}],"outputs":[],"stateMutability":"nonpayable"},{"type":"function","name":"transferOwnership","inputs":[{"name":"newOwner","type":"address","internalType":"address"}],"outputs":[],"stateMutability":"nonpayable"},{"type":"function","name":"upgradeToAndCall","inputs":[{"name":"newImplementation","type":"address","internalType":"address"},{"name":"data","type":"bytes","internalType":"bytes"}],"outputs":[],"stateMutability":"payable"},{"type":"event","name":"FeedbackRevoked","inputs":[{"name":"agentId","type":"uint256","indexed":true,"internalType":"uint256"},{"name":"clientAddress","type":"address","indexed":true,"internalType":"address"},{"name":"feedbackIndex","type":"uint64","indexed":true,"internalType":"uint64"}],"anonymous":false},{"type":"event","name":"Initialized","inputs":[{"name":"version","type":"uint64","indexed":false,"internalType":"uint64"}],"anonymous":false},{"type":"event","name":"NewFeedback","inputs":[{"name":"agentId","type":"uint256","indexed":true,"internalType":"uint256"},{"name":"clientAddress","type":"address","indexed":true,"internalType":"address"},{"name":"score","type":"uint8","indexed":false,"internalType":"uint8"},{"name":"tag1","type":"bytes32","indexed":true,"internalType":"bytes32"},{"name":"tag2","type":"bytes32","indexed":false,"internalType":"bytes32"},{"name":"feedbackUri","type":"string","indexed":false,"internalType":"string"},{"name":"feedbackHash","type":"bytes32","indexed":false,"internalType":"bytes32"}],"anonymous":false},{"type":"event","name":"OwnershipTransferred","inputs":[{"name":"previousOwner","type":"address","indexed":true,"internalType":"address"},{"name":"newOwner","type":"address","indexed":true,"internalType":"address"}],"anonymous":false},{"type":"event","name":"ResponseAppended","inputs":[{"name":"agentId","type":"uint256","indexed":true,"internalType":"uint256"},{"name":"clientAddress","type":"address","indexed":true,"internalType":"address"},{"name":"feedbackIndex","type":"uint64","indexed":false,"internalType":"uint64"},{"name":"responder","type":"address","indexed":true,"internalType":"address"},{"name":"responseUri","type":"string","indexed":false,"internalType":"string"},{"name":"responseHash","type":"bytes32","indexed":false,"internalType":"bytes32"}],"anonymous":false},{"type":"event","name":"Upgraded","inputs":[{"name":"implementation","type":"address","indexed":true,"internalType":"address"}],"anonymous":false},{"type":"error","name":"AddressEmptyCode","inputs":[{"name":"target","type":"address","internalType":"address"}]},{"type":"error","name":"ECDSAInvalidSignature","inputs":[]},{"type":"error","name":"ECDSAInvalidSignatureLength","inputs":[{"name":"length","type":"uint256","internalType":"uint256"}]},{"type":"error","name":"ECDSAInvalidSignatureS","inputs":[{"name":"s","type":"bytes32","internalType":"bytes32"}]},{"type":"error","name":"ERC1967InvalidImplementation","inputs":[{"name":"implementation","type":"address","internalType":"address"}]},{"type":"error","name":"ERC1967NonPayable","inputs":[]},{"type":"error","name":"FailedCall","inputs":[]},{"type":"error","name":"InvalidInitialization","inputs":[]},{"type":"error","name":"NotInitializing","inputs":[]},{"type":"error","name":"OwnableInvalidOwner","inputs":[{"name":"owner","type":"address","internalType":"address"}]},{"type":"error","name":"OwnableUnauthorizedAccount","inputs":[{"name":"account","type":"address","internalType":"address"}]},{"type":"error","name":"UUPSUnauthorizedCallContext","inputs":[]},{"type":"error","name":"UUPSUnsupportedProxiableUUID","inputs":[{"name":"slot","type":"bytes32","internalType":"bytes32"}]}],"bytecode":{"object":"0x60a080604052346100c257306080525f516020612a395f395f51905f525460ff8160401c166100b3576002600160401b03196001600160401b03821601610060575b60405161297290816100c78239608051818181610d890152610e2d0152f35b6001600160401b0319166001600160401b039081175f516020612a395f395f51905f525581527fc7f505b2f371ae2175ee4913f4499e1f2633a7b5936321eed1cdaeb6115181d290602090a15f80610041565b63f92ee8a960e01b5f5260045ffd5b5f80fdfe60806040526004361015610011575f80fd5b5f5f3560e01c80630d8e6e2c14612016578063155e5bbd146114bb578063232b0810146113f357806331259cff146111a857806342dd519c146111275780634ab3ca9914610ffe5780634f1ef28614610ddd57806352d1902d14610d765780636e04cacd14610b5f578063715018a614610af657806380b87594146105e55780638da5cb5b146105b0578063ad3cb1cc1461056c578063bc4d861b14610545578063c2349ab214610311578063c4d66de81461015d578063f2d817591461010f5763f2fde38b146100e0575f80fd5b3461010c57602036600319011261010c576101096100fc6120be565b6101046126f0565b61246f565b80f35b80fd5b503461010c57604036600319011261010c57604061012b6120a8565b9160043581526002602052209060018060a01b03165f5260205260206001600160401b0360405f205416604051908152f35b503461010c57602036600319011261010c576101776120be565b5f51602061291d5f395f51905f5254906001600160401b0360ff8360401c1615921680159081610309575b60011490816102ff575b1590816102f6575b506102e7578160016001600160401b03195f51602061291d5f395f51905f525416175f51602061291d5f395f51905f52556102b7575b6001600160a01b0316801561028357610201612723565b610209612723565b6102123361246f565b61021a612723565b82546001600160a01b0319161782556102305780f35b60ff60401b195f51602061291d5f395f51905f5254165f51602061291d5f395f51905f52557fc7f505b2f371ae2175ee4913f4499e1f2633a7b5936321eed1cdaeb6115181d2602060405160018152a180f35b60405162461bcd60e51b815260206004820152600c60248201526b626164206964656e7469747960a01b6044820152606490fd5b600160401b60ff60401b195f51602061291d5f395f51905f525416175f51602061291d5f395f51905f52556101ea565b63f92ee8a960e01b8352600483fd5b9050155f6101b4565b303b1591506101ac565b8391506101a2565b503461010c5760a036600319011261010c5760043561032e6120a8565b906103376120e8565b90606435916001600160401b038311610541576103606001600160401b0393369060040161207b565b9390911692610370841515612311565b82865260026020526040862060018060a01b0386165f526020526103a36001600160401b0360405f205416851115612351565b8015610510578286526005602090815260408088206001600160a01b0388165f90815290835281812087825283528181203382529092529020547fb1c6be0b5b8aef6539e2fac0fd131a2faa7b49edf8e505b5eb0ad487d56051d49261047e92909160ff161561049b575b848852600360209081526040808a206001600160a01b038a165f9081529083528181208982528352818120338252909252902080546001600160401b0390610457908216612412565b166001600160401b03198254161790556040519586526060602087015260608601916122f1565b608435604085015233946001600160a01b0316939081900390a480f35b84885260046020526040882060018060a01b0388165f5260205260405f20865f526020526104cd60405f203390612298565b848852600560209081526040808a206001600160a01b038a165f90815290835281812089825283528181203382529092529020805460ff1916600117905561040e565b60405162461bcd60e51b8152602060048201526009602482015268456d7074792055524960b81b6044820152606490fd5b8480fd5b503461010c578060031936011261010c57546040516001600160a01b039091168152602090f35b503461010c578060031936011261010c576105ac60405161058e60408261216a565b60058152640352e302e360dc1b602082015260405191829182612051565b0390f35b503461010c578060031936011261010c575f5160206128dd5f395f51905f52546040516001600160a01b039091168152602090f35b503461010c5760a036600319011261010c576024356001600160401b038111610af2576106169036906004016120fe565b60843592918315158403610aee578115610a88576106359136916123aa565b915b8190825b845181101561077d5760043584526002602052604084206001600160a01b0361066483886123fe565b511660018060a01b03165f526020526001600160401b0360405f20541660015b816001600160401b038216111561069f57505060010161063b565b93600496929695919535825260016020526040822060018060a01b036106c589866123fe565b511660018060a01b03165f5260205260405f206001600160401b0386165f5260205260405f208415851561076f575b61075457604435151560443561075f575b61075457606435151590606435610743575b506107395761072861072e9161242f565b94612412565b959195949094610684565b9361072e90612412565b60020154606435141590505f610717565b509361072e90612412565b5060443560018201541415610705565b5060ff6003820154166106f4565b5061078782612393565b91610795604051938461216a565b808352601f196107a482612393565b013660208501376107b481612393565b6107c1604051918261216a565b8181526107cd82612393565b601f19013660208301376107e08261243d565b936107ea8361243d565b9661080d6107f785612393565b94610805604051968761216a565b808652612393565b601f19013660208601378694875b82518110156109cb5760043589526002602052604089206001600160a01b0361084483866123fe565b511660018060a01b03165f526020526001600160401b0360405f20541660015b816001600160401b038216111561087f57505060010161081b565b6004358b52600160205260408b20929b919a909891929091906001600160a01b036108aa8e886123fe565b511660018060a01b03165f5260205260405f206001600160401b038a165f5260205260405f20841585156109bd575b6109a25760443515156044356109ad575b6109a2578a8d6064351515606435610992575b6109855760036109749385938b61092d61097a988d61092560ff9860018060a01b03926123fe565b5116926123fe565b528154841661093c868f6123fe565b5261094c856001840154926123fe565b52600281015461095c858a6123fe565b5201541661096a828c6123fe565b901515905261242f565b98612412565b9a919a999099610864565b5050509761097a90612412565b50606435600284015414156108fd565b509761097a90612412565b50604435600182015414156108ea565b5060ff6003820154166108d9565b6109e884878b8d898d60405196879660a0885260a088019061212e565b868103602088015260208084519283815201930190855b818110610a6c5750505081610a1f9187610a2d95940360408901526121dc565b9085820360608701526121dc565b8381036080850152602080845192838152019301915b818110610a51575050500390f35b82511515845285945060209384019390920191600101610a43565b825160ff168552899850602094850194909201916001016109ff565b505060043581526006602052604081206040518082602082945493848152019085526020852092855b818110610acc575050610ac69250038261216a565b91610637565b84546001600160a01b0316835260019485019486945060209093019201610ab1565b8280fd5b5080fd5b503461010c578060031936011261010c57610b0f6126f0565b5f5160206128dd5f395f51905f5280546001600160a01b031981169091555f906001600160a01b03167f8be0079c531659141344cd1fd0a4f28419497f9722a3daafe3b4186f6b6457e08280a380f35b503461010c57608036600319011261010c57600435610b7c6120a8565b610b846120e8565b906064356001600160401b03811161054157610ba49036906004016120fe565b85939092906001600160a01b038216610cd2575050838552600660205260408520936040518086602082985493848152019089526020892092895b818110610cb0575050610bf49250038661216a565b855b8551811015610c94578187526002602052604087206001600160a01b03610c1d83896123fe565b511660018060a01b03165f526020526001600160401b0360405f2054166001905b806001600160401b0383161115610c59575050600101610bf6565b9095610c88610c8e91610c8288888b8d610c7a8a60018060a01b03926123fe565b51168a61254d565b90612278565b96612412565b90610c3e565b505050509050602091505b6001600160401b0360405191168152f35b84546001600160a01b031683526001948501948a945060209093019201610bdf565b6001600160401b038197929394959716155f14610d6157508085604092979697959493955260026020522060018060a01b0384165f526020526001600160401b0360405f205416926001955b846001600160401b0388161115610d3d57505050505060209150610c9f565b9091929394610c88610d5691610c8287878b888861254d565b959493929190610d1e565b91905060209550610d719461254d565b610c9f565b503461010c578060031936011261010c577f00000000000000000000000000000000000000000000000000000000000000006001600160a01b03163003610dce5760206040515f5160206128fd5f395f51905f528152f35b63703e46dd60e11b8152600490fd5b50604036600319011261010c57610df26120be565b906024356001600160401b038111610af25736602382011215610af257610e239036906024816004013591016121a6565b6001600160a01b037f000000000000000000000000000000000000000000000000000000000000000016308114908115610fdc575b50610fcd57610e656126f0565b6040516352d1902d60e01b8152926001600160a01b0381169190602085600481865afa80958596610f99575b50610eaa57634c9c8ce360e01b84526004839052602484fd5b9091845f5160206128fd5f395f51905f528103610f875750813b15610f75575f5160206128fd5f395f51905f5280546001600160a01b031916821790557fbc7cd75a20ee27fd9adebab32041f755214dbc6bffa90cc0225b39da2e5c2d3b8480a28151839015610f5b5780836020610f4f95519101845af43d15610f53573d91610f338361218b565b92610f41604051948561216a565b83523d85602085013e6127fc565b5080f35b6060916127fc565b50505034610f665780f35b63b398979f60e01b8152600490fd5b634c9c8ce360e01b8452600452602483fd5b632a87526960e21b8552600452602484fd5b9095506020813d602011610fc5575b81610fb56020938361216a565b810103126105415751945f610e91565b3d9150610fa8565b63703e46dd60e11b8252600482fd5b5f5160206128fd5f395f51905f52546001600160a01b0316141590505f610e58565b503461010c57604036600319011261010c57600435602435906001600160401b03821680920361112357611033821515612311565b808352600260209081526040808520335f9081529252902054611061906001600160401b0316831115612351565b80835260016020526040832060018060a01b0333165f5260205260405f20825f5260205260ff600360405f200154166110ec57808352600160208181526040808620335f81815291845282822087835290935220600301805460ff1916909217909155907f25156fd3288212246d8b008d5921fde376c71ed14ac2e072a506eb06fde6d09d8480a480f35b60405162461bcd60e51b815260206004820152600f60248201526e105b1c9958591e481c995d9bdad959608a1b6044820152606490fd5b5f80fd5b503461010c57602036600319011261010c576004358152600660205260408120604051918260208354918281520192825260208220915b818110611189576105ac856111758187038261216a565b60405191829160208352602083019061212e565b82546001600160a01b031684526020909301926001928301920161115e565b503461010c57608036600319011261010c576004356024356001600160401b038111610aee576111dc9036906004016120fe565b60643592916044359190811561138e576111f79136916123aa565b92935b809181958290821515811515925b885181101561133e578786526002602052604086206001600160a01b0361122f838c6123fe565b511660018060a01b03165f526020526001600160401b0360405f2054166001905b806001600160401b038316111561126b575050600101611208565b98909a9781889b939b5260016020526040882060018060a01b0361128f8d866123fe565b511660018060a01b03165f5260205260405f206001600160401b038d165f5260205260405f2060ff600382015416611316578480611330575b611316578680611322575b6113165760ff9054168101809111611302576112f26112f89199612412565b9b612412565b9098999199611250565b634e487b7160e01b88526011600452602488fd5b50979a6112f890612412565b5085600282015414156112d3565b5087600182015414156112c8565b866001600160401b038b16878115806113815761136d575060ff808260409404165b8351928352166020820152f35b634e487b7160e01b81526012600452602490fd5b506040925060ff90611360565b50508184526006602052604084206040518082602082945493848152019088526020882092885b8181106113d15750506113ca9250038261216a565b92936111fa565b84546001600160a01b03168352600194850194869450602090930192016113b5565b503461010c57606036600319011261010c576004359060406114136120a8565b916001600160401b036114246120e8565b1693611431851515612311565b808252600260205282822060018060a01b0385165f526020526114626001600160401b03845f205416861115612351565b81526001602052209060018060a01b03165f5260205260405f20905f52602052608060405f2060ff8154169060018101549060ff6003600283015492015416916040519384526020840152604083015215156060820152f35b346111235760e03660031901126111235760043560243560ff811680910361112357604435916064356084356001600160401b0381116111235761150390369060040161207b565b9060c4356001600160401b0381116111235761152390369060040161207b565b60648711611fe557611534866124e0565b15611fa9575f546040516331a9108f60e11b8152600481018890526001600160a01b039091169190602081602481865afa908115611ad0575f91611f8a575b50336001600160a01b03821614159081611f26575b5080611ec9575b15611e84576040516331a9108f60e11b815260048101889052602081602481865afa908115611ad0575f91611e65575b506001600160a01b031615611e2b576101218110611df0576040519260e084018481106001600160401b03821117611a07576040525f8452602084015f815260408501905f825260608601915f835260808701925f845260a08801935f855260c08901965f88528060e011611123578d60e0880197803590611643602082016120d4565b906040810135906001600160401b03821680920361112357808d61166b60a0606094016120d4565b906001600160a01b0361168060c085016120d4565b1690526001600160a01b039081168d52608082013589529101358852908852168752808c5203611db8578451336001600160a01b0390911603611d81578251421015611d4d5781514603611d155785516001600160a01b0316899003611cdc578d6001600160401b03855116905f52600260205260405f2060018060a01b0333165f526020526001600160401b0361171d8160405f205416612246565b1611611ca15760df1901946001600160401b038a519560018060a01b03905116945116925191519060018060a01b039051169160018060a01b0389511693604051956020870197885260408701526060860152608085015260a084015260c083015260e082015260e081526117946101008261216a565b5190207f19457468657265756d205369676e6564204d6573736167653a0a3332000000005f52601c52603c5f20916117e26117d96117d33685856121a6565b8561274e565b90929192612788565b84516001600160a01b039081169116819003611b72575b50505050825192604051936331a9108f60e11b85526004850152602084602481865afa938415611ad0575f94611b51575b5081516001600160a01b038581169116908114948515611adb575b50508315611a58575b50505015611a1b575f848152600260209081526040808320338452909152902054611881906001600160401b0316612246565b916040519360808501938585106001600160401b03861117611a07577f54b3254e4cc01969e70376d20390cc2f6af90539d9adaa78a53ebcda17f78154956119b995604052888152600360208201918b83526040810185815260608201935f85528b5f52600160205260405f2060018060a01b0333165f5260205260405f206001600160401b0387165f5260205260ff60405f2093511660ff19845416178355516001830155516002820155019051151560ff80198354169116179055865f52600260205260405f2060018060a01b0333165f526020526001600160401b0360405f2091166001600160401b0319825416179055855f52600760205260405f2060018060a01b0333165f5260205260ff60405f205416156119ca575b60405196875260208701526080604087015260808601916122f1565b9260a43560608201528033940390a4005b855f5260066020526119df3360405f20612298565b5f8681526007602090815260408083203384529091529020805460ff1916600117905561199d565b634e487b7160e01b5f52604160045260245ffd5b60405162461bcd60e51b815260206004820152601560248201527414da59db995c881b9bdd08185d5d1a1bdc9a5e9959605a1b6044820152606490fd5b6020919293505160246040518095819363020604bf60e21b835260048301525afa918215611ad0575f92611a9f575b50516001600160a01b0391821691161487808061184e565b611ac291925060203d602011611ac9575b611aba818361216a565b81019061220f565b9088611a87565b503d611ab0565b6040513d5f823e3d90fd5b60405163e985e9c560e01b81526001600160a01b03918216600482015291166024820152909350602081604481865afa908115611ad0575f91611b22575b50928a80611845565b611b44915060203d602011611b4a575b611b3c818361216a565b81019061222e565b8a611b19565b503d611b32565b611b6b91945060203d602011611ac957611aba818361216a565b928a61182a565b3b15611c6857835160408051630b135d3f60e11b81526004810195909552602485015260209284926001600160a01b039092169183918291611bb89160448401916122f1565b03915afa908115611ad0575f91611c25575b506001600160e01b0319166374eca2c160e11b01611beb57898080806117f9565b60405162461bcd60e51b81526020600482015260126024820152714261642031323731207369676e617475726560701b6044820152606490fd5b90506020813d602011611c60575b81611c406020938361216a565b8101031261112357516001600160e01b031981168103611123578a611bca565b3d9150611c33565b60405162461bcd60e51b8152602060048201526011602482015270496e76616c6964207369676e617475726560781b6044820152606490fd5b60405162461bcd60e51b8152602060048201526013602482015272125b99195e131a5b5a5d08195e18d959591959606a1b6044820152606490fd5b60405162461bcd60e51b81526020600482015260116024820152700a4caced2e6e8e4f240dad2e6dac2e8c6d607b1b6044820152606490fd5b60405162461bcd60e51b815260206004820152601060248201526f086d0c2d2dc92c840dad2e6dac2e8c6d60831b6044820152606490fd5b60405162461bcd60e51b815260206004820152600c60248201526b105d5d1a08195e1c1a5c995960a21b6044820152606490fd5b60405162461bcd60e51b815260206004820152600f60248201526e086d8d2cadce840dad2e6dac2e8c6d608b1b6044820152606490fd5b60405162461bcd60e51b815260206004820152601060248201526f082cecadce892c840dad2e6dac2e8c6d60831b6044820152606490fd5b60405162461bcd60e51b8152602060048201526013602482015272092dcecc2d8d2c840c2eae8d040d8cadccee8d606b1b6044820152606490fd5b60405162461bcd60e51b8152602060048201526012602482015271155b9c9959da5cdd195c9959081859d95b9d60721b6044820152606490fd5b611e7e915060203d602011611ac957611aba818361216a565b8a6115bf565b60405162461bcd60e51b815260206004820152601960248201527f53656c662d666565646261636b206e6f7420616c6c6f776564000000000000006044820152606490fd5b5060405163020604bf60e21b815260048101889052602081602481865afa908115611ad0575f91611f07575b506001600160a01b031633141561158f565b611f20915060203d602011611ac957611aba818361216a565b8a611ef5565b60405163e985e9c560e01b81526001600160a01b039190911660048201523360248201529050602081604481865afa908115611ad0575f91611f6b575b50158a611588565b611f84915060203d602011611b4a57611b3c818361216a565b8a611f63565b611fa3915060203d602011611ac957611aba818361216a565b8a611573565b60405162461bcd60e51b81526020600482015260146024820152731059d95b9d08191bd95cc81b9bdd08195e1a5cdd60621b6044820152606490fd5b60405162461bcd60e51b8152602060048201526009602482015268073636f72653e3130360bc1b6044820152606490fd5b34611123575f366003190112611123576105ac60405161203760408261216a565b60058152640312e302e360dc1b6020820152604051918291825b602060409281835280519182918282860152018484015e5f828201840152601f01601f1916010190565b9181601f84011215611123578235916001600160401b038311611123576020838186019501011161112357565b602435906001600160a01b038216820361112357565b600435906001600160a01b038216820361112357565b35906001600160a01b038216820361112357565b604435906001600160401b038216820361112357565b9181601f84011215611123578235916001600160401b038311611123576020808501948460051b01011161112357565b90602080835192838152019201905f5b81811061214b5750505090565b82516001600160a01b031684526020938401939092019160010161213e565b90601f801991011681019081106001600160401b03821117611a0757604052565b6001600160401b038111611a0757601f01601f191660200190565b9291926121b28261218b565b916121c0604051938461216a565b829481845281830111611123578281602093845f960137010152565b90602080835192838152019201905f5b8181106121f95750505090565b82518452602093840193909201916001016121ec565b9081602091031261112357516001600160a01b03811681036111235790565b90816020910312611123575180151581036111235790565b6001600160401b036001911601906001600160401b03821161226457565b634e487b7160e01b5f52601160045260245ffd5b906001600160401b03809116911601906001600160401b03821161226457565b805490600160401b821015611a0757600182018082558210156122dd575f5260205f20019060018060a01b03166bffffffffffffffffffffffff60a01b825416179055565b634e487b7160e01b5f52603260045260245ffd5b908060209392818452848401375f828201840152601f01601f1916010190565b1561231857565b60405162461bcd60e51b81526020600482015260116024820152700696e646578206d757374206265203e203607c1b6044820152606490fd5b1561235857565b60405162461bcd60e51b8152602060048201526013602482015272696e646578206f7574206f6620626f756e647360681b6044820152606490fd5b6001600160401b038111611a075760051b60200190565b9291906123b681612393565b936123c4604051958661216a565b602085838152019160051b810192831161112357905b8282106123e657505050565b602080916123f3846120d4565b8152019101906123da565b80518210156122dd5760209160051b010190565b6001600160401b03166001600160401b0381146122645760010190565b5f1981146122645760010190565b9061244782612393565b612454604051918261216a565b8281528092612465601f1991612393565b0190602036910137565b6001600160a01b031680156124cd575f5160206128dd5f395f51905f5280546001600160a01b0319811683179091556001600160a01b03167f8be0079c531659141344cd1fd0a4f28419497f9722a3daafe3b4186f6b6457e05f80a3565b631e4fbdf760e01b5f525f60045260245ffd5b5f546040516331a9108f60e11b81526004810192909252602090829060249082906001600160a01b03165afa5f918161252c575b5061251e57505f90565b6001600160a01b0316151590565b61254691925060203d602011611ac957611aba818361216a565b905f612514565b5f959490939080612660575050825f52600460205260405f2060018060a01b0382165f5260205260405f206001600160401b0383165f5260205260405f2092604051808560208297549384815201905f5260205f20925f5b81811061263e5750506125ba9250038561216a565b5f955b84518710156126365761262e600191835f52600360205260405f20838060a01b0386165f5260205260405f206001600160401b0387165f5260205260405f20838060a01b0361260c8b8a6123fe565b5116848060a01b03165f526020526001600160401b0360405f20541690612278565b9601956125bd565b955050505050565b84546001600160a01b03168352600194850194899450602090930192016125a5565b945f96949196945b868610156126e6575f8381526003602090815260408083206001600160a01b0388811685529083528184206001600160401b038a16855290925290912091600588901b8a01359182168203611123576001926126de92848060a01b03165f526020526001600160401b0360405f20541690612278565b950194612668565b9650945050505050565b5f5160206128dd5f395f51905f52546001600160a01b0316330361271057565b63118cdaa760e01b5f523360045260245ffd5b60ff5f51602061291d5f395f51905f525460401c161561273f57565b631afcd79f60e31b5f5260045ffd5b815191906041830361277e576127779250602082015190606060408401519301515f1a9061285a565b9192909190565b50505f9160029190565b60048110156127e8578061279a575050565b600181036127b15763f645eedf60e01b5f5260045ffd5b600281036127cc575063fce698f760e01b5f5260045260245ffd5b6003146127d65750565b6335e2f38360e21b5f5260045260245ffd5b634e487b7160e01b5f52602160045260245ffd5b90612820575080511561281157602081519101fd5b63d6bda27560e01b5f5260045ffd5b81511580612851575b612831575090565b639996b31560e01b5f9081526001600160a01b0391909116600452602490fd5b50803b15612829565b91907f7fffffffffffffffffffffffffffffff5d576e7357a4501ddfe92f46681b20a084116128d1579160209360809260ff5f9560405194855216868401526040830152606082015282805260015afa15611ad0575f516001600160a01b038116156128c757905f905f90565b505f906001905f90565b5050505f916003919056fe9016d09d72d40fdae2fd8ceac6b6234c7706214fd39c1cd1e609a0528c199300360894a13ba1a3210667c828492db98dca3e2076cc3735a920a3ca505d382bbcf0c57e16840df040f15088dc2f81fe391c3923bec73e23a9662efc9c229c6a00a2646970667358221220ca793b208a8dc295bce1bee8ed6892291452f9e79536b9d6329f12fbf269202264736f6c634300081c0033f0c57e16840df040f15088dc2f81fe391c3923bec73e23a9662efc9c229c6a00","linkReferences":{}},"methodIdentifiers":{"UPGRADE_INTERFACE_VERSION()":"ad3cb1cc","appendResponse(uint256,address,uint64,string,bytes32)":"c2349ab2","getClients(uint256)":"42dd519c","getIdentityRegistry()":"bc4d861b","getLastIndex(uint256,address)":"f2d81759","getResponseCount(uint256,address,uint64,address[])":"6e04cacd","getSummary(uint256,address[],bytes32,bytes32)":"31259cff","getVersion()":"0d8e6e2c","giveFeedback(uint256,uint8,bytes32,bytes32,string,bytes32,bytes)":"155e5bbd","initialize(address)":"c4d66de8","owner()":"8da5cb5b","proxiableUUID()":"52d1902d","readAllFeedback(uint256,address[],bytes32,bytes32,bool)":"80b87594","readFeedback(uint256,address,uint64)":"232b0810","renounceOwnership()":"715018a6","revokeFeedback(uint256,uint64)":"4ab3ca99","transferOwnership(address)":"f2fde38b","upgradeToAndCall(address,bytes)":"4f1ef286"},"id":63}