{"abi":[{"type":"constructor","inputs":[],"stateMutability":"nonpayable"},{"type":"function","name":"UPGRADE_INTERFACE_VERSION","inputs":[],"outputs":[{"name":"","type":"string","internalType":"string"}],"stateMutability":"view"},{"type":"function","name":"approve","inputs":[{"name":"to","type":"address","internalType":"address"},{"name":"tokenId","type":"uint256","internalType":"uint256"}],"outputs":[],"stateMutability":"nonpayable"},{"type":"function","name":"balanceOf","inputs":[{"name":"owner","type":"address","internalType":"address"}],"outputs":[{"name":"","type":"uint256","internalType":"uint256"}],"stateMutability":"view"},{"type":"function","name":"getApproved","inputs":[{"name":"tokenId","type":"uint256","internalType":"uint256"}],"outputs":[{"name":"","type":"address","internalType":"address"}],"stateMutability":"view"},{"type":"function","name":"getMetadata","inputs":[{"name":"agentId","type":"uint256","internalType":"uint256"},{"name":"key","type":"string","internalType":"string"}],"outputs":[{"name":"","type":"bytes","internalType":"bytes"}],"stateMutability":"view"},{"type":"function","name":"getVersion","inputs":[],"outputs":[{"name":"","type":"string","internalType":"string"}],"stateMutability":"pure"},{"type":"function","name":"initialize","inputs":[],"outputs":[],"stateMutability":"nonpayable"},{"type":"function","name":"isApprovedForAll","inputs":[{"name":"owner","type":"address","internalType":"address"},{"name":"operator","type":"address","internalType":"address"}],"outputs":[{"name":"","type":"bool","internalType":"bool"}],"stateMutability":"view"},{"type":"function","name":"name","inputs":[],"outputs":[{"name":"","type":"string","internalType":"string"}],"stateMutability":"view"},{"type":"function","name":"owner","inputs":[],"outputs":[{"name":"","type":"address","internalType":"address"}],"stateMutability":"view"},{"type":"function","name":"ownerOf","inputs":[{"name":"tokenId","type":"uint256","internalType":"uint256"}],"outputs":[{"name":"","type":"address","internalType":"address"}],"stateMutability":"view"},{"type":"function","name":"proxiableUUID","inputs":[],"outputs":[{"name":"","type":"bytes32","internalType":"bytes32"}],"stateMutability":"view"},{"type":"function","name":"register","inputs":[],"outputs":[{"name":"agentId","type":"uint256","internalType":"uint256"}],"stateMutability":"nonpayable"},{"type":"function","name":"register","inputs":[{"name":"tokenUri","type":"string","internalType":"string"},{"name":"metadata","type":"tuple[]","internalType":"struct IdentityRegistryUpgradeable.MetadataEntry[]","components":[{"name":"key","type":"string","internalType":"string"},{"name":"value","type":"bytes","internalType":"bytes"}]}],"outputs":[{"name":"agentId","type":"uint256","internalType":"uint256"}],"stateMutability":"nonpayable"},{"type":"function","name":"register","inputs":[{"name":"tokenUri","type":"string","internalType":"string"}],"outputs":[{"name":"agentId","type":"uint256","internalType":"uint256"}],"stateMutability":"nonpayable"},{"type":"function","name":"renounceOwnership","inputs":[],"outputs":[],"stateMutability":"nonpayable"},{"type":"function","name":"safeTransferFrom","inputs":[{"name":"from","type":"address","internalType":"address"},{"name":"to","type":"address","internalType":"address"},{"name":"tokenId","type":"uint256","internalType":"uint256"}],"outputs":[],"stateMutability":"nonpayable"},{"type":"function","name":"safeTransferFrom","inputs":[{"name":"from","type":"address","internalType":"address"},{"name":"to","type":"address","internalType":"address"},{"name":"tokenId","type":"uint256","internalType":"uint256"},{"name":"data","type":"bytes","internalType":"bytes"}],"outputs":[],"stateMutability":"nonpayable"},{"type":"function","name":"setAgentUri","inputs":[{"name":"agentId","type":"uint256","internalType":"uint256"},{"name":"newUri","type":"string","internalType":"string"}],"outputs":[],"stateMutability":"nonpayable"},{"type":"function","name":"setApprovalForAll","inputs":[{"name":"operator","type":"address","internalType":"address"},{"name":"approved","type":"bool","internalType":"bool"}],"outputs":[],"stateMutability":"nonpayable"},{"type":"function","name":"setMetadata","inputs":[{"name":"agentId","type":"uint256","internalType":"uint256"},{"name":"key","type":"string","internalType":"string"},{"name":"value","type":"bytes","internalType":"bytes"}],"outputs":[],"stateMutability":"nonpayable"},{"type":"function","name":"supportsInterface","inputs":[{"name":"interfaceId","type":"bytes4","internalType":"bytes4"}],"outputs":[{"name":"","type":"bool","internalType":"bool"}],"stateMutability":"view"},{"type":"function","name":"symbol","inputs":[],"outputs":[{"name":"","type":"string","internalType":"string"}],"stateMutability":"view"},{"type":"function","name":"tokenURI","inputs":[{"name":"tokenId","type":"uint256","internalType":"uint256"}],"outputs":[{"name":"","type":"string","internalType":"string"}],"stateMutability":"view"},{"type":"function","name":"transferFrom","inputs":[{"name":"from","type":"address","internalType":"address"},{"name":"to","type":"address","internalType":"address"},{"name":"tokenId","type":"uint256","internalType":"uint256"}],"outputs":[],"stateMutability":"nonpayable"},{"type":"function","name":"transferOwnership","inputs":[{"name":"newOwner","type":"address","internalType":"address"}],"outputs":[],"stateMutability":"nonpayable"},{"type":"function","name":"upgradeToAndCall","inputs":[{"name":"newImplementation","type":"address","internalType":"address"},{"name":"data","type":"bytes","internalType":"bytes"}],"outputs":[],"stateMutability":"payable"},{"type":"event","name":"Approval","inputs":[{"name":"owner","type":"address","indexed":true,"internalType":"address"},{"name":"approved","type":"address","indexed":true,"internalType":"address"},{"name":"tokenId","type":"uint256","indexed":true,"internalType":"uint256"}],"anonymous":false},{"type":"event","name":"ApprovalForAll","inputs":[{"name":"owner","type":"address","indexed":true,"internalType":"address"},{"name":"operator","type":"address","indexed":true,"internalType":"address"},{"name":"approved","type":"bool","indexed":false,"internalType":"bool"}],"anonymous":false},{"type":"event","name":"BatchMetadataUpdate","inputs":[{"name":"_fromTokenId","type":"uint256","indexed":false,"internalType":"uint256"},{"name":"_toTokenId","type":"uint256","indexed":false,"internalType":"uint256"}],"anonymous":false},{"type":"event","name":"Initialized","inputs":[{"name":"version","type":"uint64","indexed":false,"internalType":"uint64"}],"anonymous":false},{"type":"event","name":"MetadataSet","inputs":[{"name":"agentId","type":"uint256","indexed":true,"internalType":"uint256"},{"name":"indexedKey","type":"string","indexed":true,"internalType":"string"},{"name":"key","type":"string","indexed":false,"internalType":"string"},{"name":"value","type":"bytes","indexed":false,"internalType":"bytes"}],"anonymous":false},{"type":"event","name":"MetadataUpdate","inputs":[{"name":"_tokenId","type":"uint256","indexed":false,"internalType":"uint256"}],"anonymous":false},{"type":"event","name":"OwnershipTransferred","inputs":[{"name":"previousOwner","type":"address","indexed":true,"internalType":"address"},{"name":"newOwner","type":"address","indexed":true,"internalType":"address"}],"anonymous":false},{"type":"event","name":"Registered","inputs":[{"name":"agentId","type":"uint256","indexed":true,"internalType":"uint256"},{"name":"tokenURI","type":"string","indexed":false,"internalType":"string"},{"name":"owner","type":"address","indexed":true,"internalType":"address"}],"anonymous":false},{"type":"event","name":"Transfer","inputs":[{"name":"from","type":"address","indexed":true,"internalType":"address"},{"name":"to","type":"address","indexed":true,"internalType":"address"},{"name":"tokenId","type":"uint256","indexed":true,"internalType":"uint256"}],"anonymous":false},{"type":"event","name":"Upgraded","inputs":[{"name":"implementation","type":"address","indexed":true,"internalType":"address"}],"anonymous":false},{"type":"event","name":"UriUpdated","inputs":[{"name":"agentId","type":"uint256","indexed":true,"internalType":"uint256"},{"name":"newUri","type":"string","indexed":false,"internalType":"string"},{"name":"updatedBy","type":"address","indexed":true,"internalType":"address"}],"anonymous":false},{"type":"error","name":"AddressEmptyCode","inputs":[{"name":"target","type":"address","internalType":"address"}]},{"type":"error","name":"ERC1967InvalidImplementation","inputs":[{"name":"implementation","type":"address","internalType":"address"}]},{"type":"error","name":"ERC1967NonPayable","inputs":[]},{"type":"error","name":"ERC721IncorrectOwner","inputs":[{"name":"sender","type":"address","internalType":"address"},{"name":"tokenId","type":"uint256","internalType":"uint256"},{"name":"owner","type":"address","internalType":"address"}]},{"type":"error","name":"ERC721InsufficientApproval","inputs":[{"name":"operator","type":"address","internalType":"address"},{"name":"tokenId","type":"uint256","internalType":"uint256"}]},{"type":"error","name":"ERC721InvalidApprover","inputs":[{"name":"approver","type":"address","internalType":"address"}]},{"type":"error","name":"ERC721InvalidOperator","inputs":[{"name":"operator","type":"address","internalType":"address"}]},{"type":"error","name":"ERC721InvalidOwner","inputs":[{"name":"owner","type":"address","internalType":"address"}]},{"type":"error","name":"ERC721InvalidReceiver","inputs":[{"name":"receiver","type":"address","internalType":"address"}]},{"type":"error","name":"ERC721InvalidSender","inputs":[{"name":"sender","type":"address","internalType":"address"}]},{"type":"error","name":"ERC721NonexistentToken","inputs":[{"name":"tokenId","type":"uint256","internalType":"uint256"}]},{"type":"error","name":"FailedCall","inputs":[]},{"type":"error","name":"InvalidInitialization","inputs":[]},{"type":"error","name":"NotInitializing","inputs":[]},{"type":"error","name":"OwnableInvalidOwner","inputs":[{"name":"owner","type":"address","internalType":"address"}]},{"type":"error","name":"OwnableUnauthorizedAccount","inputs":[{"name":"account","type":"address","internalType":"address"}]},{"type":"error","name":"UUPSUnauthorizedCallContext","inputs":[]},{"type":"error","name":"UUPSUnsupportedProxiableUUID","inputs":[{"name":"slot","type":"bytes32","internalType":"bytes32"}]}],"bytecode":{"object":"0x60a080604052346100c257306080525f5160206124a15f395f51905f525460ff8160401c166100b3576002600160401b03196001600160401b03821601610060575b6040516123da90816100c78239608051818181610fb201526110430152f35b6001600160401b0319166001600160401b039081175f5160206124a15f395f51905f525581527fc7f505b2f371ae2175ee4913f4499e1f2633a7b5936321eed1cdaeb6115181d290602090a15f80610041565b63f92ee8a960e01b5f5260045ffd5b5f80fdfe6080806040526004361015610012575f80fd5b5f3560e01c90816301ffc9a7146116a65750806306fdde03146115e9578063081812fc146115c1578063095ea7b3146114d55780630d8e6e2c1461148e5780631aa3a0081461142b57806323b872dd1461141457806342842e0e146113e5578063466648da146111d35780634f1ef2861461100657806352d1902d14610fa05780635a75314914610e6b5780636352211e14610e3b57806370a0823114610dec578063715018a614610d855780638129fc1c1461090e5780638da5cb5b146108da5780638ea42286146105a057806395d89b41146104be578063a22cb46514610426578063ad3cb1cc146103df578063b88d4fde14610385578063c87b56dd14610366578063cb4799f214610256578063e985e9c51461020a578063f2c298be146101745763f2fde38b14610145575f80fd5b346101705760203660031901126101705761016e61016161174f565b6101696120fc565b611cb7565b005b5f80fd5b34610170576020366003190112610170576004356001600160401b038111610170576101a66020913690600401611827565b5f54906101b28261187d565b5f556101be8233611d7d565b6101c88183611fbd565b817fca52e62c367d81bb2e328eb795f7c7ba24afb478408a26c0e201d155c449bc4a604051858152806101ff33958883019061172b565b0390a3604051908152f35b346101705760403660031901126101705761022361174f565b61023461022e611765565b91611b73565b9060018060a01b03165f52602052602060ff60405f2054166040519015158152f35b34610170576040366003190112610170576024356001600160401b03811161017057602061028981923690600401611827565b6004355f526001825260405f20604051938285935191829101845e820190815203019020604051905f908054906102bf82611845565b808552916001811690811561033f57506001146102ff575b6102fb846102e7818603826117b5565b60405191829160208352602083019061172b565b0390f35b5f90815260208120939250905b808210610325575090915081016020016102e7826102d7565b91926001816020925483858801015201910190929161030c565b60ff191660208087019190915292151560051b850190920192506102e791508390506102d7565b34610170576020366003190112610170576102fb6102e7600435611bd3565b346101705760803660031901126101705761039e61174f565b6103a6611765565b90604435606435926001600160401b038411610170576103cd61016e943690600401611827565b926103d983838361189f565b3361215e565b34610170575f366003190112610170576102fb6040516104006040826117b5565b60058152640352e302e360dc1b602082015260405191829160208352602083019061172b565b346101705760403660031901126101705761043f61174f565b60243590811515809203610170576001600160a01b03169081156104ab5761046633611b73565b825f5260205260405f2060ff1981541660ff83161790556040519081527f17307eab39ab6107e8899845ad3d59bd9653f200f220920489ca2b5937696c3160203392a3005b50630b61174360e31b5f5260045260245ffd5b34610170575f366003190112610170576040515f5f5160206123855f395f51905f52546104ea81611845565b808452906001811690811561057c5750600114610512575b6102fb836102e7818503826117b5565b5f5160206123855f395f51905f525f9081527ff4bad0a69248f59680a4f2b3000328cec71a413447c96781cfe5996daa8c456e939250905b808210610562575090915081016020016102e7610502565b91926001816020925483858801015201910190929161054a565b60ff191660208086019190915291151560051b840190910191506102e79050610502565b34610170576040366003190112610170576004356001600160401b038111610170576105d0903690600401611827565b6024356001600160401b0381116101705736602382011215610170578060040135906001600160401b038211610822578160051b906040519261061660208401856117b5565b835260246020840192820101903682116101705760248101925b8284106108415784865f54906106458261187d565b5f556106518233611d7d565b61065b8183611fbd565b817fca52e62c367d81bb2e328eb795f7c7ba24afb478408a26c0e201d155c449bc4a60405160208152806106943395602083019061172b565b0390a35f915b80518310156108365760206106af8483611bab565b51015192825f52600160205260208060405f206106cc8486611bab565b515190604051938285935191829101845e8201908152030190208451946001600160401b0386116108225761070b866107058454611845565b84611ac0565b602090601f87116001146107bb57958061073f9260019697985f926107b0575b50508160011b915f199060031b1c19161790565b90555b61074c8184611bab565b5151847f2c149ed548c6d2993cd73efe187df6eccabe4538091b33adbd25fafdb8a1468b61077a8487611bab565b515192610795602061078c878a611bab565b51015191611afa565b936107a560405192839283611b16565b0390a301919061069a565b01519050888061072b565b90601f19871691835f52815f20925f5b81811061080a5750916001969798929183889593106107f2575b505050811b019055610742565b01515f1960f88460031b161c191690558780806107e5565b828401518555600190940193602093840193016107cb565b634e487b7160e01b5f52604160045260245ffd5b602082604051908152f35b83356001600160401b038111610170578201604060231982360301126101705760405191604083018381106001600160401b038211176108225760405260248201356001600160401b038111610170576108a19060243691850101611827565b83526044820135926001600160401b038411610170576108cb602094936024869536920101611827565b83820152815201930192610630565b34610170575f366003190112610170575f5160206123055f395f51905f52546040516001600160a01b039091168152602090f35b34610170575f366003190112610170575f5160206123655f395f51905f525460ff8160401c1615906001600160401b03811680159081610d7d575b6001149081610d73575b159081610d6a575b50610d5b5767ffffffffffffffff1981166001175f5160206123655f395f51905f525581610d2f575b5060409081519161099581846117b5565b600d83526c4167656e744964656e7469747960981b60208401528051916109bc82846117b5565b600383526210525160ea1b60208401526109d461225b565b6109dc61225b565b83516001600160401b03811161082257610a035f5160206122e55f395f51905f5254611845565b601f8111610cd5575b50602094601f8211600114610c3c57610a3e9293949582915f92610c315750508160011b915f199060031b1c19161790565b5f5160206122e55f395f51905f52555b82516001600160401b03811161082257610a755f5160206123855f395f51905f5254611845565b601f8111610bcc575b506020601f8211600114610b51578190610aae9394955f92610b465750508160011b915f199060031b1c19161790565b5f5160206123855f395f51905f52555b610ac661225b565b610ace61225b565b610ad661225b565b610adf33611cb7565b610ae761225b565b5f8055610af057005b60207fc7f505b2f371ae2175ee4913f4499e1f2633a7b5936321eed1cdaeb6115181d29168ff0000000000000000195f5160206123655f395f51905f5254165f5160206123655f395f51905f52555160018152a1005b01519050858061072b565b601f198216905f5160206123855f395f51905f525f52805f20915f5b818110610bb457509583600195969710610b9c575b505050811b015f5160206123855f395f51905f5255610abe565b01515f1960f88460031b161c19169055848080610b82565b9192602060018192868b015181550194019201610b6d565b5f5160206123855f395f51905f525f52610c21907ff4bad0a69248f59680a4f2b3000328cec71a413447c96781cfe5996daa8c456e601f840160051c81019160208510610c27575b601f0160051c0190611aaa565b84610a7e565b9091508190610c14565b01519050868061072b565b601f198216955f5160206122e55f395f51905f525f527f37c58c799b6609234b945e882912ee9ad34948a1dfaa20a97485e1a7752bbf81915f5b888110610cbd57508360019596979810610ca5575b505050811b015f5160206122e55f395f51905f5255610a4e565b01515f1960f88460031b161c19169055858080610c8b565b91926020600181928685015181550194019201610c76565b5f5160206122e55f395f51905f525f52610d29907f37c58c799b6609234b945e882912ee9ad34948a1dfaa20a97485e1a7752bbf81601f840160051c81019160208510610c2757601f0160051c0190611aaa565b85610a0c565b68ffffffffffffffffff191668010000000000000001175f5160206123655f395f51905f525581610984565b63f92ee8a960e01b5f5260045ffd5b9050158361095b565b303b159150610953565b839150610949565b34610170575f36600319011261017057610d9d6120fc565b5f5160206123055f395f51905f5280546001600160a01b031981169091555f906001600160a01b03167f8be0079c531659141344cd1fd0a4f28419497f9722a3daafe3b4186f6b6457e08280a3005b3461017057602036600319011261017057610e0561174f565b6001600160a01b03811615610e2857610e1f602091611b3b565b54604051908152f35b6322718ad960e21b5f525f60045260245ffd5b34610170576020366003190112610170576020610e59600435611d28565b6040516001600160a01b039091168152f35b34610170576040366003190112610170576024356004356001600160401b0382116101705736602383011215610170578160040135916001600160401b0383116101705760248101906024843692010111610170577fb41beef75d9f8d55b985319b459e96f82453580af381391f1ad531eb8f8b5a3a90610eeb83611d28565b336001600160a01b03821614908115610f7d575b508015610f54575b610f1090611a6d565b610f24610f1e3686846117f1565b84611fbd565b83604051916020835281602084015260408301375f604085830101526040813395601f80199101168101030190a3005b50610f5e83611d28565b50610f106001600160a01b03610f7385611d57565b1633149050610f07565b610f879150611b73565b335f908152602091909152604090205460ff1685610eff565b34610170575f366003190112610170577f00000000000000000000000000000000000000000000000000000000000000006001600160a01b03163003610ff75760206040515f5160206123255f395f51905f528152f35b63703e46dd60e11b5f5260045ffd5b60403660031901126101705761101a61174f565b6024356001600160401b03811161017057611039903690600401611827565b6001600160a01b037f0000000000000000000000000000000000000000000000000000000000000000163081149081156111b1575b50610ff75761107b6120fc565b6040516352d1902d60e01b81526001600160a01b0383169290602081600481875afa5f918161117d575b506110bd5783634c9c8ce360e01b5f5260045260245ffd5b805f5160206123255f395f51905f5285920361116b5750813b15611159575f5160206123255f395f51905f5280546001600160a01b031916821790557fbc7cd75a20ee27fd9adebab32041f755214dbc6bffa90cc0225b39da2e5c2d3b5f80a2815115611141575f8083602061016e95519101845af461113b61212f565b91612286565b50503461114a57005b63b398979f60e01b5f5260045ffd5b634c9c8ce360e01b5f5260045260245ffd5b632a87526960e21b5f5260045260245ffd5b9091506020813d6020116111a9575b81611199602093836117b5565b81010312610170575190856110a5565b3d915061118c565b5f5160206123255f395f51905f52546001600160a01b0316141590508361106e565b34610170576060366003190112610170576004356024356001600160401b03811161017057611206903690600401611827565b906044356001600160401b03811161017057611226903690600401611827565b6001600160a01b0361123783611f84565b16331480156113bb575b8015611392575b61125190611a6d565b815f52600160205260405f2060206040518092865180848901845e82019081520301902081516001600160401b03811161082257611293816107058454611845565b6020601f821160011461130f57817f2c149ed548c6d2993cd73efe187df6eccabe4538091b33adbd25fafdb8a1468b9493926112e3925f91611304575b508160011b915f199060031b1c19161790565b90555b6112ef84611afa565b936112ff60405192839283611b16565b0390a3005b9050840151886112d0565b601f19821690835f52805f20915f5b81811061137a57509183917f2c149ed548c6d2993cd73efe187df6eccabe4538091b33adbd25fafdb8a1468b96959460019410611362575b5050811b0190556112e6565b8501515f1960f88460031b161c191690558780611356565b9192602060018192868a01518155019401920161131e565b5061139c82611d28565b506112516001600160a01b036113b184611d57565b1633149050611248565b506113cd6113c883611f84565b611b73565b335f908152602091909152604090205460ff16611241565b346101705761016e6113f63661177b565b90604051926114066020856117b5565b5f84526103d983838361189f565b346101705761016e6114253661177b565b9161189f565b34610170575f3660031901126101705760205f546114488161187d565b5f556114548133611d7d565b6040518281525f83820152817fca52e62c367d81bb2e328eb795f7c7ba24afb478408a26c0e201d155c449bc4a60403393a3604051908152f35b34610170575f366003190112610170576102fb6040516114af6040826117b5565b60058152640312e302e360dc1b602082015260405191829160208352602083019061172b565b34610170576040366003190112610170576114ee61174f565b6024356114fa81611d28565b331515806115ae575b8061158b575b6115785781906001600160a01b0384811691167f8c5be1e5ebec7d5bd14f71427d1e84f3dd0314c0f7b2291e5b200ac8c7c3b9255f80a45f9081525f5160206123455f395f51905f526020526040902080546001600160a01b0319166001600160a01b03909216919091179055005b63a9fbf51f60e01b5f523360045260245ffd5b5061159581611b73565b335f908152602091909152604090205460ff1615611509565b506001600160a01b038116331415611503565b34610170576020366003190112610170576020610e596004356115e381611d28565b50611d57565b34610170575f366003190112610170576040515f5f5160206122e55f395f51905f525461161581611845565b808452906001811690811561057c575060011461163c576102fb836102e7818503826117b5565b5f5160206122e55f395f51905f525f9081527f37c58c799b6609234b945e882912ee9ad34948a1dfaa20a97485e1a7752bbf81939250905b80821061168c575090915081016020016102e7610502565b919260018160209254838588010152019101909291611674565b34610170576020366003190112610170576004359063ffffffff60e01b821680920361017057602091632483248360e11b81149081156116e8575b5015158152f35b6380ac58cd60e01b81149150811561171a575b8115611709575b50836116e1565b6301ffc9a760e01b14905083611702565b635b5e139f60e01b811491506116fb565b805180835260209291819084018484015e5f828201840152601f01601f1916010190565b600435906001600160a01b038216820361017057565b602435906001600160a01b038216820361017057565b6060906003190112610170576004356001600160a01b038116810361017057906024356001600160a01b0381168103610170579060443590565b90601f801991011681019081106001600160401b0382111761082257604052565b6001600160401b03811161082257601f01601f191660200190565b9291926117fd826117d6565b9161180b60405193846117b5565b829481845281830111610170578281602093845f960137010152565b9080601f8301121561017057816020611842933591016117f1565b90565b90600182811c92168015611873575b602083101461185f57565b634e487b7160e01b5f52602260045260245ffd5b91607f1691611854565b5f19811461188b5760010190565b634e487b7160e01b5f52601160045260245ffd5b9091906001600160a01b0383168015611a5a57826118bc81611f84565b91331515806119b8575b506001600160a01b038316956118e0908761197c57611b3b565b60018154019055815f527f80bb2b638cc20bc4d0a60d66940f3ab4a00c1d7b313497ca82fb0b4ab007930260205260405f20816bffffffffffffffffffffffff60a01b825416179055857fddf252ad1be2c89b69c2b068fc378daa952ba7f163c4a11628f55a4df523b3ef5f80a4506001600160a01b031680830361196457505050565b6364283d7b60e01b5f5260045260245260445260645ffd5b5f8481525f5160206123455f395f51905f526020526040902080546001600160a01b03191690556119ac85611b3b565b80545f19019055611b3b565b90915080611a05575b156119ce5783905f6118c6565b836001600160a01b0383166119ef57637e27328960e01b5f5260045260245ffd5b63177e802f60e01b5f523360045260245260445ffd5b506001600160a01b03821633148015611a38575b806119c15750336001600160a01b03611a3186611d57565b16146119c1565b50611a4282611b73565b335f908152602091909152604090205460ff16611a19565b633250574960e11b5f525f60045260245ffd5b15611a7457565b60405162461bcd60e51b815260206004820152600e60248201526d139bdd08185d5d1a1bdc9a5e995960921b6044820152606490fd5b818110611ab5575050565b5f8155600101611aaa565b9190601f8111611acf57505050565b611af8925f5260205f20906020601f840160051c83019310610c2757601f0160051c0190611aaa565b565b602090604051918183925191829101835e81015f815203902090565b9091611b2d6118429360408452604084019061172b565b91602081840391015261172b565b6001600160a01b03165f9081527f80bb2b638cc20bc4d0a60d66940f3ab4a00c1d7b313497ca82fb0b4ab00793036020526040902090565b6001600160a01b03165f9081527f80bb2b638cc20bc4d0a60d66940f3ab4a00c1d7b313497ca82fb0b4ab00793056020526040902090565b8051821015611bbf5760209160051b010190565b634e487b7160e01b5f52603260045260245ffd5b611bdc81611d28565b505f527f0542a41881ee128a365a727b282c86fa859579490b9bb45aab8503648c8e790060205260405f2060405190815f825492611c1984611845565b8084529360018116908115611c955750600114611c51575b50611c3e925003826117b5565b5f604051611c4d6020826117b5565b5290565b90505f9291925260205f20905f915b818310611c79575050906020611c3e928201015f611c31565b6020919350806001915483858801015201910190918392611c60565b905060209250611c3e94915060ff191682840152151560051b8201015f611c31565b6001600160a01b03168015611d15575f5160206123055f395f51905f5280546001600160a01b0319811683179091556001600160a01b03167f8be0079c531659141344cd1fd0a4f28419497f9722a3daafe3b4186f6b6457e05f80a3565b631e4fbdf760e01b5f525f60045260245ffd5b611d3181611f84565b906001600160a01b03821615611d45575090565b637e27328960e01b5f5260045260245ffd5b5f9081525f5160206123455f395f51905f5260205260409020546001600160a01b031690565b9060209060405190611d8f83836117b5565b5f82526001600160a01b038416938415611a5a57611dac82611f84565b6001600160a01b03811680151591908490889084611f48575b611dce86611b3b565b805460010190555f8381527f80bb2b638cc20bc4d0a60d66940f3ab4a00c1d7b313497ca82fb0b4ab00793028a526040812080546001600160a01b031916841790557fddf252ad1be2c89b69c2b068fc378daa952ba7f163c4a11628f55a4df523b3ef9080a450611f35573b611e45575b50505050565b91611e8291819495936040519384928392630a85bd0160e11b84523360048501525f6024850152604484015260806064840152608483019061172b565b03815f885af15f9181611ef5575b50611ebe575050611e9f61212f565b8051919082611ebb5783633250574960e11b5f5260045260245ffd5b01fd5b909291506001600160e01b03191663757a42ff60e11b01611ee357505f808080611e3f565b633250574960e11b5f5260045260245ffd5b9091508381813d8311611f2e575b611f0d81836117b5565b8101031261017057516001600160e01b03198116810361017057905f611e90565b503d611f03565b6339e3563760e11b5f525f60045260245ffd5b5f8381525f5160206123455f395f51905f526020526040902080546001600160a01b0319169055611f7884611b3b565b80545f19019055611dc5565b5f9081527f80bb2b638cc20bc4d0a60d66940f3ab4a00c1d7b313497ca82fb0b4ab007930260205260409020546001600160a01b031690565b919091805f527f0542a41881ee128a365a727b282c86fa859579490b9bb45aab8503648c8e790060205260405f2083516001600160401b03811161082257612009816107058454611845565b6020601f82116001146120745781602094939261205d927ff8e1a15aba9398e019f0b49df1a4fde98ee17ae345cb5f6b5e2c27f5033e8ce797985f926120695750508160011b915f199060031b1c19161790565b90555b604051908152a1565b015190505f8061072b565b601f19821695835f52815f20965f5b8181106120e4575096600192849260209796957ff8e1a15aba9398e019f0b49df1a4fde98ee17ae345cb5f6b5e2c27f5033e8ce7999a106120cc575b505050811b019055612060565b01515f1960f88460031b161c191690555f80806120bf565b83830151895560019098019760209384019301612083565b5f5160206123055f395f51905f52546001600160a01b0316330361211c57565b63118cdaa760e01b5f523360045260245ffd5b3d15612159573d90612140826117d6565b9161214e60405193846117b5565b82523d5f602084013e565b606090565b823b61216c575b5050505050565b604051630a85bd0160e11b81526001600160a01b0391821660048201529181166024830152604482019390935260806064820152911691602090829081906121b890608483019061172b565b03815f865af15f9181612216575b506121f457506121d461212f565b805190816121ef5782633250574960e11b5f5260045260245ffd5b602001fd5b6001600160e01b03191663757a42ff60e11b01611ee357505f80808080612165565b9091506020813d602011612253575b81612232602093836117b5565b8101031261017057516001600160e01b03198116810361017057905f6121c6565b3d9150612225565b60ff5f5160206123655f395f51905f525460401c161561227757565b631afcd79f60e31b5f5260045ffd5b906122aa575080511561229b57602081519101fd5b63d6bda27560e01b5f5260045ffd5b815115806122db575b6122bb575090565b639996b31560e01b5f9081526001600160a01b0391909116600452602490fd5b50803b156122b356fe80bb2b638cc20bc4d0a60d66940f3ab4a00c1d7b313497ca82fb0b4ab00793009016d09d72d40fdae2fd8ceac6b6234c7706214fd39c1cd1e609a0528c199300360894a13ba1a3210667c828492db98dca3e2076cc3735a920a3ca505d382bbc80bb2b638cc20bc4d0a60d66940f3ab4a00c1d7b313497ca82fb0b4ab0079304f0c57e16840df040f15088dc2f81fe391c3923bec73e23a9662efc9c229c6a0080bb2b638cc20bc4d0a60d66940f3ab4a00c1d7b313497ca82fb0b4ab0079301a264697066735822122075f5f5950c762b7772b4152c18abbfb3a8b4deb163de9594f3afd6635cc120d464736f6c634300081c0033f0c57e16840df040f15088dc2f81fe391c3923bec73e23a9662efc9c229c6a00","linkReferences":{}},"methodIdentifiers":{"UPGRADE_INTERFACE_VERSION()":"ad3cb1cc","approve(address,uint256)":"095ea7b3","balanceOf(address)":"70a08231","getApproved(uint256)":"081812fc","getMetadata(uint256,string)":"cb4799f2","getVersion()":"0d8e6e2c","initialize()":"8129fc1c","isApprovedForAll(address,address)":"e985e9c5","name()":"06fdde03","owner()":"8da5cb5b","ownerOf(uint256)":"6352211e","proxiableUUID()":"52d1902d","register()":"1aa3a008","register(string)":"f2c298be","register(string,(string,bytes)[])":"8ea42286","renounceOwnership()":"715018a6","safeTransferFrom(address,address,uint256)":"42842e0e","safeTransferFrom(address,address,uint256,bytes)":"b88d4fde","setAgentUri(uint256,string)":"5a753149","setApprovalForAll(address,bool)":"a22cb465","setMetadata(uint256,string,bytes)":"466648da","supportsInterface(bytes4)":"01ffc9a7","symbol()":"95d89b41","tokenURI(uint256)":"c87b56dd","transferFrom(address,address,uint256)":"23b872dd","transferOwnership(address)":"f2fde38b","upgradeToAndCall(address,bytes)":"4f1ef286"},"id":60}