{"abi":[{"type":"constructor","inputs":[{"name":"_owner","type":"address","internalType":"address"}],"stateMutability":"nonpayable"},{"type":"function","name":"isValidSignature","inputs":[{"name":"hash","type":"bytes32","internalType":"bytes32"},{"name":"signature","type":"bytes","internalType":"bytes"}],"outputs":[{"name":"magicValue","type":"bytes4","internalType":"bytes4"}],"stateMutability":"view"},{"type":"function","name":"onERC721Received","inputs":[{"name":"","type":"address","internalType":"address"},{"name":"","type":"address","internalType":"address"},{"name":"","type":"uint256","internalType":"uint256"},{"name":"","type":"bytes","internalType":"bytes"}],"outputs":[{"name":"","type":"bytes4","internalType":"bytes4"}],"stateMutability":"pure"},{"type":"function","name":"owner","inputs":[],"outputs":[{"name":"","type":"address","internalType":"address"}],"stateMutability":"view"},{"type":"error","name":"ECDSAInvalidSignature","inputs":[]},{"type":"error","name":"ECDSAInvalidSignatureLength","inputs":[{"name":"length","type":"uint256","internalType":"uint256"}]},{"type":"error","name":"ECDSAInvalidSignatureS","inputs":[{"name":"s","type":"bytes32","internalType":"bytes32"}]}],"bytecode":{"object":"0x608034606f57601f6103fb38819003918201601f19168301916001600160401b03831184841017607357808492602094604052833981010312606f57516001600160a01b03811690819003606f575f80546001600160a01b03191691909117905560405161037390816100888239f35b5f80fd5b634e487b7160e01b5f52604160045260245ffdfe6080806040526004361015610012575f80fd5b5f3560e01c908163150b7a0214610127575080631626ba7e1461006857638da5cb5b1461003d575f80fd5b34610064575f366003190112610064575f546040516001600160a01b039091168152602090f35b5f80fd5b346100645760403660031901126100645760243567ffffffffffffffff811161006457366023820112156100645780600401359067ffffffffffffffff821161011357604051601f8301601f19908116603f0116810167ffffffffffffffff811182821017610113576040528281523660248484010111610064575f60208481956024610100960183860137830101526004356101c1565b6040516001600160e01b03199091168152f35b634e487b7160e01b5f52604160045260245ffd5b3461006457608036600319011261006457610140610195565b506101496101ab565b5060643567ffffffffffffffff8111610064573660238201121561006457806004013567ffffffffffffffff8111610064573691016024011161006457630a85bd0160e11b8152602090f35b600435906001600160a01b038216820361006457565b602435906001600160a01b038216820361006457565b6101d7916101ce91610202565b9092919261023c565b5f546001600160a01b039182169116036101f657630b135d3f60e11b90565b6001600160e01b031990565b81519190604183036102325761022b9250602082015190606060408401519301515f1a906102b0565b9192909190565b50505f9160029190565b600481101561029c578061024e575050565b600181036102655763f645eedf60e01b5f5260045ffd5b60028103610280575063fce698f760e01b5f5260045260245ffd5b60031461028a5750565b6335e2f38360e21b5f5260045260245ffd5b634e487b7160e01b5f52602160045260245ffd5b91907f7fffffffffffffffffffffffffffffff5d576e7357a4501ddfe92f46681b20a08411610332579160209360809260ff5f9560405194855216868401526040830152606082015282805260015afa15610327575f516001600160a01b0381161561031d57905f905f90565b505f906001905f90565b6040513d5f823e3d90fd5b5050505f916003919056fea26469706673582212204b60d812e731ed7b202ce6a90d499e2fc436163f974cc6c386ce66b23bde2dd664736f6c634300081c0033","linkReferences":{}},"methodIdentifiers":{"isValidSignature(bytes32,bytes)":"1626ba7e","onERC721Received(address,address,uint256,bytes)":"150b7a02","owner()":"8da5cb5b"},"id":61}