{"abi":[{"type":"constructor","inputs":[{"name":"_identityRegistry","type":"address","internalType":"address"}],"stateMutability":"nonpayable"},{"type":"function","name":"appendResponse","inputs":[{"name":"agentId","type":"uint256","internalType":"uint256"},{"name":"clientAddress","type":"address","internalType":"address"},{"name":"feedbackIndex","type":"uint64","internalType":"uint64"},{"name":"responseUri","type":"string","internalType":"string"},{"name":"responseHash","type":"bytes32","internalType":"bytes32"}],"outputs":[],"stateMutability":"nonpayable"},{"type":"function","name":"getClients","inputs":[{"name":"agentId","type":"uint256","internalType":"uint256"}],"outputs":[{"name":"","type":"address[]","internalType":"address[]"}],"stateMutability":"view"},{"type":"function","name":"getIdentityRegistry","inputs":[],"outputs":[{"name":"","type":"address","internalType":"address"}],"stateMutability":"view"},{"type":"function","name":"getLastIndex","inputs":[{"name":"agentId","type":"uint256","internalType":"uint256"},{"name":"clientAddress","type":"address","internalType":"address"}],"outputs":[{"name":"","type":"uint64","internalType":"uint64"}],"stateMutability":"view"},{"type":"function","name":"getResponseCount","inputs":[{"name":"agentId","type":"uint256","internalType":"uint256"},{"name":"clientAddress","type":"address","internalType":"address"},{"name":"feedbackIndex","type":"uint64","internalType":"uint64"},{"name":"responders","type":"address[]","internalType":"address[]"}],"outputs":[{"name":"count","type":"uint64","internalType":"uint64"}],"stateMutability":"view"},{"type":"function","name":"getSummary","inputs":[{"name":"agentId","type":"uint256","internalType":"uint256"},{"name":"clientAddresses","type":"address[]","internalType":"address[]"},{"name":"tag1","type":"bytes32","internalType":"bytes32"},{"name":"tag2","type":"bytes32","internalType":"bytes32"}],"outputs":[{"name":"count","type":"uint64","internalType":"uint64"},{"name":"averageScore","type":"uint8","internalType":"uint8"}],"stateMutability":"view"},{"type":"function","name":"giveFeedback","inputs":[{"name":"agentId","type":"uint256","internalType":"uint256"},{"name":"score","type":"uint8","internalType":"uint8"},{"name":"tag1","type":"bytes32","internalType":"bytes32"},{"name":"tag2","type":"bytes32","internalType":"bytes32"},{"name":"feedbackUri","type":"string","internalType":"string"},{"name":"feedbackHash","type":"bytes32","internalType":"bytes32"},{"name":"feedbackAuth","type":"bytes","internalType":"bytes"}],"outputs":[],"stateMutability":"nonpayable"},{"type":"function","name":"readAllFeedback","inputs":[{"name":"agentId","type":"uint256","internalType":"uint256"},{"name":"clientAddresses","type":"address[]","internalType":"address[]"},{"name":"tag1","type":"bytes32","internalType":"bytes32"},{"name":"tag2","type":"bytes32","internalType":"bytes32"},{"name":"includeRevoked","type":"bool","internalType":"bool"}],"outputs":[{"name":"clients","type":"address[]","internalType":"address[]"},{"name":"scores","type":"uint8[]","internalType":"uint8[]"},{"name":"tag1s","type":"bytes32[]","internalType":"bytes32[]"},{"name":"tag2s","type":"bytes32[]","internalType":"bytes32[]"},{"name":"revokedStatuses","type":"bool[]","internalType":"bool[]"}],"stateMutability":"view"},{"type":"function","name":"readFeedback","inputs":[{"name":"agentId","type":"uint256","internalType":"uint256"},{"name":"clientAddress","type":"address","internalType":"address"},{"name":"index","type":"uint64","internalType":"uint64"}],"outputs":[{"name":"score","type":"uint8","internalType":"uint8"},{"name":"tag1","type":"bytes32","internalType":"bytes32"},{"name":"tag2","type":"bytes32","internalType":"bytes32"},{"name":"isRevoked","type":"bool","internalType":"bool"}],"stateMutability":"view"},{"type":"function","name":"revokeFeedback","inputs":[{"name":"agentId","type":"uint256","internalType":"uint256"},{"name":"feedbackIndex","type":"uint64","internalType":"uint64"}],"outputs":[],"stateMutability":"nonpayable"},{"type":"event","name":"FeedbackRevoked","inputs":[{"name":"agentId","type":"uint256","indexed":true,"internalType":"uint256"},{"name":"clientAddress","type":"address","indexed":true,"internalType":"address"},{"name":"feedbackIndex","type":"uint64","indexed":true,"internalType":"uint64"}],"anonymous":false},{"type":"event","name":"NewFeedback","inputs":[{"name":"agentId","type":"uint256","indexed":true,"internalType":"uint256"},{"name":"clientAddress","type":"address","indexed":true,"internalType":"address"},{"name":"score","type":"uint8","indexed":false,"internalType":"uint8"},{"name":"tag1","type":"bytes32","indexed":true,"internalType":"bytes32"},{"name":"tag2","type":"bytes32","indexed":false,"internalType":"bytes32"},{"name":"feedbackUri","type":"string","indexed":false,"internalType":"string"},{"name":"feedbackHash","type":"bytes32","indexed":false,"internalType":"bytes32"}],"anonymous":false},{"type":"event","name":"ResponseAppended","inputs":[{"name":"agentId","type":"uint256","indexed":true,"internalType":"uint256"},{"name":"clientAddress","type":"address","indexed":true,"internalType":"address"},{"name":"feedbackIndex","type":"uint64","indexed":false,"internalType":"uint64"},{"name":"responder","type":"address","indexed":true,"internalType":"address"},{"name":"responseUri","type":"string","indexed":false,"internalType":"string"},{"name":"responseHash","type":"bytes32","indexed":false,"internalType":"bytes32"}],"anonymous":false},{"type":"error","name":"ECDSAInvalidSignature","inputs":[]},{"type":"error","name":"ECDSAInvalidSignatureLength","inputs":[{"name":"length","type":"uint256","internalType":"uint256"}]},{"type":"error","name":"ECDSAInvalidSignatureS","inputs":[{"name":"s","type":"bytes32","internalType":"bytes32"}]}],"bytecode":{"object":"0x60a0346100b257601f6122c638819003918201601f19168301916001600160401b038311848410176100b6578084926020946040528339810103126100b257516001600160a01b0381168082036100b2571561007e576080526040516121fb90816100cb823960805181818161032601528181610fc30152611e870152f35b60405162461bcd60e51b815260206004820152600c60248201526b626164206964656e7469747960a01b6044820152606490fd5b5f80fd5b634e487b7160e01b5f52604160045260245ffdfe6080806040526004361015610012575f80fd5b5f905f3560e01c908163155e5bbd14610f2b57508063232b081014610e6457806331259cff14610c1a57806342dd519c14610b955780634ab3ca9914610a775780636e04cacd1461086057806380b8759414610355578063bc4d861b14610310578063c2349ab2146100dc5763f2d817591461008c575f80fd5b346100d95760403660031901126100d95760406100a7611b05565b9160043581526001602052209060018060a01b03165f5260205260206001600160401b0360405f205416604051908152f35b80fd5b50346100d95760a03660031901126100d9576004356100f9611b05565b90610102611b2f565b90606435916001600160401b03831161030c5761012b6001600160401b03933690600401611ad8565b939091169261013b841515611d0c565b82865260016020526040862060018060a01b0386165f5260205261016e6001600160401b0360405f205416851115611d4c565b80156102db578286526004602090815260408088206001600160a01b0388165f90815290835281812087825283528181203382529092529020547fb1c6be0b5b8aef6539e2fac0fd131a2faa7b49edf8e505b5eb0ad487d56051d49261024992909160ff1615610266575b848852600260209081526040808a206001600160a01b038a165f9081529083528181208982528352818120338252909252902080546001600160401b0390610222908216611e0d565b166001600160401b0319825416179055604051958652606060208701526060860191611cec565b608435604085015233946001600160a01b0316939081900390a480f35b84885260036020526040882060018060a01b0388165f5260205260405f20865f5260205261029860405f203390611c8e565b848852600460209081526040808a206001600160a01b038a165f90815290835281812089825283528181203382529092529020805460ff191660011790556101d9565b60405162461bcd60e51b8152602060048201526009602482015268456d7074792055524960b81b6044820152606490fd5b8480fd5b50346100d957806003193601126100d9576040517f00000000000000000000000000000000000000000000000000000000000000006001600160a01b03168152602090f35b50346100d95760a03660031901126100d9576024356001600160401b03811161085c57610386903690600401611b45565b608435929183151584036108585781156107f2576103a5913691611da5565b915b8190825b84518110156104ec5760043584526001602052604084206001600160a01b036103d48388611df9565b511660018060a01b03165f526020526001600160401b0360405f20541660015b816001600160401b038216111561040f5750506001016103ab565b936004969296959195358252816020526040822060018060a01b036104348986611df9565b511660018060a01b03165f5260205260405f206001600160401b0386165f5260205260405f20841585156104de575b6104c35760443515156044356104ce575b6104c3576064351515906064356104b2575b506104a85761049761049d91611e2a565b94611e0d565b9591959490946103f4565b9361049d90611e0d565b60020154606435141590505f610486565b509361049d90611e0d565b5060443560018201541415610474565b5060ff600382015416610463565b506104f682611d8e565b916105046040519384611be4565b808352601f1961051382611d8e565b0136602085013761052381611d8e565b6105306040519182611be4565b81815261053c82611d8e565b601f190136602083013761054f82611e38565b9361055983611e38565b9661057c61056685611d8e565b946105746040519687611be4565b808652611d8e565b601f19013660208601378694875b82518110156107355760043589526001602052604089206001600160a01b036105b38386611df9565b511660018060a01b03165f526020526001600160401b0360405f20541660015b816001600160401b03821611156105ee57505060010161058a565b9760049b929b9a919a35825281602052604082208c61061460018060a01b039188611df9565b511660018060a01b03165f5260205260405f206001600160401b038a165f5260205260405f2084158515610727575b61070c576044351515604435610717575b61070c578a8d60643515156064356106fc575b6106ef5760036106de9385938b6106976106e4988d61068f60ff9860018060a01b0392611df9565b511692611df9565b52815484166106a6868f611df9565b526106b685600184015492611df9565b5260028101546106c6858a611df9565b520154166106d4828c611df9565b9015159052611e2a565b98611e0d565b9a919a9990996105d3565b505050976106e490611e0d565b5060643560028401541415610667565b50976106e490611e0d565b5060443560018201541415610654565b5060ff600382015416610643565b61075284878b8d898d60405196879660a0885260a0880190611b75565b868103602088015260208084519283815201930190855b8181106107d6575050508161078991876107979594036040890152611bb1565b908582036060870152611bb1565b8381036080850152602080845192838152019301915b8181106107bb575050500390f35b825115158452859450602093840193909201916001016107ad565b825160ff16855289985060209485019490920191600101610769565b505060043581526005602052604081206040518082602082945493848152019085526020852092855b81811061083657505061083092500382611be4565b916103a7565b84546001600160a01b031683526001948501948694506020909301920161081b565b8280fd5b5080fd5b50346100d95760803660031901126100d95760043561087d611b05565b610885611b2f565b906064356001600160401b03811161030c576108a5903690600401611b45565b85939092906001600160a01b0382166109d3575050838552600560205260408520936040518086602082985493848152019089526020892092895b8181106109b15750506108f592500386611be4565b855b8551811015610995578187526001602052604087206001600160a01b0361091e8389611df9565b511660018060a01b03165f526020526001600160401b0360405f2054166001905b806001600160401b038316111561095a5750506001016108f7565b909561098961098f9161098388888b8d61097b8a60018060a01b0392611df9565b51168a611ef2565b90611c6e565b96611e0d565b9061093f565b505050509050602091505b6001600160401b0360405191168152f35b84546001600160a01b031683526001948501948a9450602090930192016108e0565b6001600160401b038197929394959716155f14610a6257508085604092979697959493955260016020522060018060a01b0384165f526020526001600160401b0360405f205416926001955b846001600160401b0388161115610a3e575050505050602091506109a0565b9091929394610989610a579161098387878b8888611ef2565b959493929190610a1f565b91905060209550610a7294611ef2565b6109a0565b50346100d95760403660031901126100d957600435602435906001600160401b038216809203610b9157610aac821515611d0c565b808352600160209081526040808520335f9081529252902054610ada906001600160401b0316831115611d4c565b80835260208381526040808520335f90815290835281812085825290925290206003015460ff16610b5a5780835260208381526040808520335f81815291845282822086835290935220600301805460ff19166001179055907f25156fd3288212246d8b008d5921fde376c71ed14ac2e072a506eb06fde6d09d8480a480f35b60405162461bcd60e51b815260206004820152600f60248201526e105b1c9958591e481c995d9bdad959608a1b6044820152606490fd5b5f80fd5b50346100d95760203660031901126100d9576004358152600560205260408120604051918260208354918281520192825260208220915b818110610bfb57610bf785610be381870382611be4565b604051918291602083526020830190611b75565b0390f35b82546001600160a01b0316845260209093019260019283019201610bcc565b50346100d95760803660031901126100d9576004356024356001600160401b03811161085857610c4e903690600401611b45565b606435929160443591908115610dff57610c69913691611da5565b92935b809181958290821515811515925b8851811015610daf578786526001602052604086206001600160a01b03610ca1838c611df9565b511660018060a01b03165f526020526001600160401b0360405f2054166001905b806001600160401b0383161115610cdd575050600101610c7a565b98909a9781889b939b52876020526040882060018060a01b03610d008d86611df9565b511660018060a01b03165f5260205260405f206001600160401b038d165f5260205260405f2060ff600382015416610d87578480610da1575b610d87578680610d93575b610d875760ff9054168101809111610d7357610d63610d699199611e0d565b9b611e0d565b9098999199610cc2565b634e487b7160e01b88526011600452602488fd5b50979a610d6990611e0d565b508560028201541415610d44565b508760018201541415610d39565b866001600160401b038b1687811580610df257610dde575060ff808260409404165b8351928352166020820152f35b634e487b7160e01b81526012600452602490fd5b506040925060ff90610dd1565b50508184526005602052604084206040518082602082945493848152019088526020882092885b818110610e42575050610e3b92500382611be4565b9293610c6c565b84546001600160a01b0316835260019485019486945060209093019201610e26565b50346100d95760603660031901126100d957600435906040610e84611b05565b916001600160401b03610e95611b2f565b1693610ea2851515611d0c565b808252600160205282822060018060a01b0385165f52602052610ed36001600160401b03845f205416861115611d4c565b815280602052209060018060a01b03165f5260205260405f20905f52602052608060405f2060ff8154169060018101549060ff6003600283015492015416916040519384526020840152604083015215156060820152f35b34610b915760e0366003190112610b91576004356024359060ff8216809203610b915760443592606435906084356001600160401b038111610b9157610f75903690600401611ad8565b9160c4356001600160401b038111610b9157610f95903690600401611ad8565b9160648811611aaa5750610fa886611e6a565b15611a6e576040516331a9108f60e11b8152600481018790527f00000000000000000000000000000000000000000000000000000000000000006001600160a01b03169190602081602481865afa908115611595575f91611a4f575b50336001600160a01b038216141590816119eb575b508061198e575b15611949576040516331a9108f60e11b815260048101889052602081602481865afa908115611595575f9161192a575b506001600160a01b0316156118f05761012183106118b5576040519260e084018481106001600160401b038211176114cc576040525f8452602084015f815260408501905f825260608601935f855260808701915f835260a08801935f855260c08901965f88528660e011610b915760e08401948e85356110d360208801611b1b565b60408801356001600160401b038116809103610b91576110f560a08a01611b1b565b8d6001600160a01b0361110a60c08d01611b1b565b1690526001600160a01b039081168c5260808a0135865260608a01358752908752168652808d520361187d578351336001600160a01b039091160361184657815142101561181257805146036117da5786516001600160a01b03168a90036117a1578e6001600160401b03845116905f52600160205260405f2060018060a01b0333165f526020526001600160401b036111a98160405f205416611c3c565b16116117665760df198801966001600160401b038c519560018060a01b03905116945116925191519060018060a01b039051169160018060a01b038b511693604051956020870197885260408701526060860152608085015260a084015260c083015260e082015260e0815261122161010082611be4565b5190207f19457468657265756d205369676e6564204d6573736167653a0a3332000000005f52601c52603c5f20936001600160401b0384116114cc576040519161127660c0198301601f191660200184611be4565b8483528136910111610b9157815f61129f92868660206112a8970137820160bf19015285612095565b909291926120cf565b84516001600160a01b039081169116819003611637575b50505050825192604051936331a9108f60e11b85526004850152602084602481865afa938415611595575f94611616575b5081516001600160a01b0385811691169081149485156115a0575b5050831561151d575b505050156114e0575f848152600160209081526040808320338452909152902054611347906001600160401b0316611c3c565b916040519360808501938585106001600160401b038611176114cc577f54b3254e4cc01969e70376d20390cc2f6af90539d9adaa78a53ebcda17f781549561147e95604052888152600360208201918b83526040810185815260608201935f85528b5f525f60205260405f2060018060a01b0333165f5260205260405f206001600160401b0387165f5260205260ff60405f2093511660ff19845416178355516001830155516002820155019051151560ff80198354169116179055865f52600160205260405f2060018060a01b0333165f526020526001600160401b0360405f2091166001600160401b0319825416179055855f52600660205260405f2060018060a01b0333165f5260205260ff60405f2054161561148f575b6040519687526020870152608060408701526080860191611cec565b9260a43560608201528033940390a4005b855f5260056020526114a43360405f20611c8e565b5f8681526006602090815260408083203384529091529020805460ff19166001179055611462565b634e487b7160e01b5f52604160045260245ffd5b60405162461bcd60e51b815260206004820152601560248201527414da59db995c881b9bdd08185d5d1a1bdc9a5e9959605a1b6044820152606490fd5b6020919293505160246040518095819363020604bf60e21b835260048301525afa918215611595575f92611564575b50516001600160a01b03918216911614878080611314565b61158791925060203d60201161158e575b61157f8183611be4565b810190611c05565b908861154c565b503d611575565b6040513d5f823e3d90fd5b60405163e985e9c560e01b81526001600160a01b03918216600482015291166024820152909350602081604481865afa908115611595575f916115e7575b50928a8061130b565b611609915060203d60201161160f575b6116018183611be4565b810190611c24565b8a6115de565b503d6115f7565b61163091945060203d60201161158e5761157f8183611be4565b928a6112f0565b3b1561172d57835160408051630b135d3f60e11b81526004810195909552602485015260209284926001600160a01b03909216918391829161167d916044840191611cec565b03915afa908115611595575f916116ea575b506001600160e01b0319166374eca2c160e11b016116b057898080806112bf565b60405162461bcd60e51b81526020600482015260126024820152714261642031323731207369676e617475726560701b6044820152606490fd5b90506020813d602011611725575b8161170560209383611be4565b81010312610b9157516001600160e01b031981168103610b91578a61168f565b3d91506116f8565b60405162461bcd60e51b8152602060048201526011602482015270496e76616c6964207369676e617475726560781b6044820152606490fd5b60405162461bcd60e51b8152602060048201526013602482015272125b99195e131a5b5a5d08195e18d959591959606a1b6044820152606490fd5b60405162461bcd60e51b81526020600482015260116024820152700a4caced2e6e8e4f240dad2e6dac2e8c6d607b1b6044820152606490fd5b60405162461bcd60e51b815260206004820152601060248201526f086d0c2d2dc92c840dad2e6dac2e8c6d60831b6044820152606490fd5b60405162461bcd60e51b815260206004820152600c60248201526b105d5d1a08195e1c1a5c995960a21b6044820152606490fd5b60405162461bcd60e51b815260206004820152600f60248201526e086d8d2cadce840dad2e6dac2e8c6d608b1b6044820152606490fd5b60405162461bcd60e51b815260206004820152601060248201526f082cecadce892c840dad2e6dac2e8c6d60831b6044820152606490fd5b60405162461bcd60e51b8152602060048201526013602482015272092dcecc2d8d2c840c2eae8d040d8cadccee8d606b1b6044820152606490fd5b60405162461bcd60e51b8152602060048201526012602482015271155b9c9959da5cdd195c9959081859d95b9d60721b6044820152606490fd5b611943915060203d60201161158e5761157f8183611be4565b8a611050565b60405162461bcd60e51b815260206004820152601960248201527f53656c662d666565646261636b206e6f7420616c6c6f776564000000000000006044820152606490fd5b5060405163020604bf60e21b815260048101889052602081602481865afa908115611595575f916119cc575b506001600160a01b0316331415611020565b6119e5915060203d60201161158e5761157f8183611be4565b8a6119ba565b60405163e985e9c560e01b81526001600160a01b039190911660048201523360248201529050602081604481865afa908115611595575f91611a30575b50158a611019565b611a49915060203d60201161160f576116018183611be4565b8a611a28565b611a68915060203d60201161158e5761157f8183611be4565b8a611004565b60405162461bcd60e51b81526020600482015260146024820152731059d95b9d08191bd95cc81b9bdd08195e1a5cdd60621b6044820152606490fd5b62461bcd60e51b8152602060048201526009602482015268073636f72653e3130360bc1b6044820152606490fd5b9181601f84011215610b91578235916001600160401b038311610b915760208381860195010111610b9157565b602435906001600160a01b0382168203610b9157565b35906001600160a01b0382168203610b9157565b604435906001600160401b0382168203610b9157565b9181601f84011215610b91578235916001600160401b038311610b91576020808501948460051b010111610b9157565b90602080835192838152019201905f5b818110611b925750505090565b82516001600160a01b0316845260209384019390920191600101611b85565b90602080835192838152019201905f5b818110611bce5750505090565b8251845260209384019390920191600101611bc1565b90601f801991011681019081106001600160401b038211176114cc57604052565b90816020910312610b9157516001600160a01b0381168103610b915790565b90816020910312610b9157518015158103610b915790565b6001600160401b036001911601906001600160401b038211611c5a57565b634e487b7160e01b5f52601160045260245ffd5b906001600160401b03809116911601906001600160401b038211611c5a57565b805490680100000000000000008210156114cc5760018201808255821015611cd8575f5260205f20019060018060a01b03166bffffffffffffffffffffffff60a01b825416179055565b634e487b7160e01b5f52603260045260245ffd5b908060209392818452848401375f828201840152601f01601f1916010190565b15611d1357565b60405162461bcd60e51b81526020600482015260116024820152700696e646578206d757374206265203e203607c1b6044820152606490fd5b15611d5357565b60405162461bcd60e51b8152602060048201526013602482015272696e646578206f7574206f6620626f756e647360681b6044820152606490fd5b6001600160401b0381116114cc5760051b60200190565b929190611db181611d8e565b93611dbf6040519586611be4565b602085838152019160051b8101928311610b9157905b828210611de157505050565b60208091611dee84611b1b565b815201910190611dd5565b8051821015611cd85760209160051b010190565b6001600160401b03166001600160401b038114611c5a5760010190565b5f198114611c5a5760010190565b90611e4282611d8e565b611e4f6040519182611be4565b8281528092611e60601f1991611d8e565b0190602036910137565b6040516331a9108f60e11b815260048101919091526020816024817f00000000000000000000000000000000000000000000000000000000000000006001600160a01b03165afa5f9181611ed1575b50611ec357505f90565b6001600160a01b0316151590565b611eeb91925060203d60201161158e5761157f8183611be4565b905f611eb9565b5f959490939080612005575050825f52600360205260405f2060018060a01b0382165f5260205260405f206001600160401b0383165f5260205260405f2092604051808560208297549384815201905f5260205f20925f5b818110611fe3575050611f5f92500385611be4565b5f955b8451871015611fdb57611fd3600191835f52600260205260405f20838060a01b0386165f5260205260405f206001600160401b0387165f5260205260405f20838060a01b03611fb18b8a611df9565b5116848060a01b03165f526020526001600160401b0360405f20541690611c6e565b960195611f62565b955050505050565b84546001600160a01b0316835260019485019489945060209093019201611f4a565b945f96949196945b8686101561208b575f8381526002602090815260408083206001600160a01b0388811685529083528184206001600160401b038a16855290925290912091600588901b8a01359182168203610b915760019261208392848060a01b03165f526020526001600160401b0360405f20541690611c6e565b95019461200d565b9650945050505050565b81519190604183036120c5576120be9250602082015190606060408401519301515f1a90612143565b9192909190565b50505f9160029190565b600481101561212f57806120e1575050565b600181036120f85763f645eedf60e01b5f5260045ffd5b60028103612113575063fce698f760e01b5f5260045260245ffd5b60031461211d5750565b6335e2f38360e21b5f5260045260245ffd5b634e487b7160e01b5f52602160045260245ffd5b91907f7fffffffffffffffffffffffffffffff5d576e7357a4501ddfe92f46681b20a084116121ba579160209360809260ff5f9560405194855216868401526040830152606082015282805260015afa15611595575f516001600160a01b038116156121b057905f905f90565b505f906001905f90565b5050505f916003919056fea264697066735822122049197a9dfd73f9b94ef6dcf4d7b27378d4d5e4abd4e8028956b619f20ad5c2ea64736f6c634300081c0033","linkReferences":{}},"methodIdentifiers":{"appendResponse(uint256,address,uint64,string,bytes32)":"c2349ab2","getClients(uint256)":"42dd519c","getIdentityRegistry()":"bc4d861b","getLastIndex(uint256,address)":"f2d81759","getResponseCount(uint256,address,uint64,address[])":"6e04cacd","getSummary(uint256,address[],bytes32,bytes32)":"31259cff","giveFeedback(uint256,uint8,bytes32,bytes32,string,bytes32,bytes)":"155e5bbd","readAllFeedback(uint256,address[],bytes32,bytes32,bool)":"80b87594","readFeedback(uint256,address,uint64)":"232b0810","revokeFeedback(uint256,uint64)":"4ab3ca99"},"id":62}