{"abi":[{"type":"constructor","inputs":[],"stateMutability":"nonpayable"},{"type":"function","name":"approve","inputs":[{"name":"to","type":"address","internalType":"address"},{"name":"tokenId","type":"uint256","internalType":"uint256"}],"outputs":[],"stateMutability":"nonpayable"},{"type":"function","name":"balanceOf","inputs":[{"name":"owner","type":"address","internalType":"address"}],"outputs":[{"name":"","type":"uint256","internalType":"uint256"}],"stateMutability":"view"},{"type":"function","name":"getApproved","inputs":[{"name":"tokenId","type":"uint256","internalType":"uint256"}],"outputs":[{"name":"","type":"address","internalType":"address"}],"stateMutability":"view"},{"type":"function","name":"getMetadata","inputs":[{"name":"agentId","type":"uint256","internalType":"uint256"},{"name":"key","type":"string","internalType":"string"}],"outputs":[{"name":"","type":"bytes","internalType":"bytes"}],"stateMutability":"view"},{"type":"function","name":"isApprovedForAll","inputs":[{"name":"owner","type":"address","internalType":"address"},{"name":"operator","type":"address","internalType":"address"}],"outputs":[{"name":"","type":"bool","internalType":"bool"}],"stateMutability":"view"},{"type":"function","name":"name","inputs":[],"outputs":[{"name":"","type":"string","internalType":"string"}],"stateMutability":"view"},{"type":"function","name":"owner","inputs":[],"outputs":[{"name":"","type":"address","internalType":"address"}],"stateMutability":"view"},{"type":"function","name":"ownerOf","inputs":[{"name":"tokenId","type":"uint256","internalType":"uint256"}],"outputs":[{"name":"","type":"address","internalType":"address"}],"stateMutability":"view"},{"type":"function","name":"register","inputs":[],"outputs":[{"name":"agentId","type":"uint256","internalType":"uint256"}],"stateMutability":"nonpayable"},{"type":"function","name":"register","inputs":[{"name":"tokenUri","type":"string","internalType":"string"},{"name":"metadata","type":"tuple[]","internalType":"struct IdentityRegistry.MetadataEntry[]","components":[{"name":"key","type":"string","internalType":"string"},{"name":"value","type":"bytes","internalType":"bytes"}]}],"outputs":[{"name":"agentId","type":"uint256","internalType":"uint256"}],"stateMutability":"nonpayable"},{"type":"function","name":"register","inputs":[{"name":"tokenUri","type":"string","internalType":"string"}],"outputs":[{"name":"agentId","type":"uint256","internalType":"uint256"}],"stateMutability":"nonpayable"},{"type":"function","name":"renounceOwnership","inputs":[],"outputs":[],"stateMutability":"nonpayable"},{"type":"function","name":"safeTransferFrom","inputs":[{"name":"from","type":"address","internalType":"address"},{"name":"to","type":"address","internalType":"address"},{"name":"tokenId","type":"uint256","internalType":"uint256"}],"outputs":[],"stateMutability":"nonpayable"},{"type":"function","name":"safeTransferFrom","inputs":[{"name":"from","type":"address","internalType":"address"},{"name":"to","type":"address","internalType":"address"},{"name":"tokenId","type":"uint256","internalType":"uint256"},{"name":"data","type":"bytes","internalType":"bytes"}],"outputs":[],"stateMutability":"nonpayable"},{"type":"function","name":"setAgentUri","inputs":[{"name":"agentId","type":"uint256","internalType":"uint256"},{"name":"newUri","type":"string","internalType":"string"}],"outputs":[],"stateMutability":"nonpayable"},{"type":"function","name":"setApprovalForAll","inputs":[{"name":"operator","type":"address","internalType":"address"},{"name":"approved","type":"bool","internalType":"bool"}],"outputs":[],"stateMutability":"nonpayable"},{"type":"function","name":"setMetadata","inputs":[{"name":"agentId","type":"uint256","internalType":"uint256"},{"name":"key","type":"string","internalType":"string"},{"name":"value","type":"bytes","internalType":"bytes"}],"outputs":[],"stateMutability":"nonpayable"},{"type":"function","name":"supportsInterface","inputs":[{"name":"interfaceId","type":"bytes4","internalType":"bytes4"}],"outputs":[{"name":"","type":"bool","internalType":"bool"}],"stateMutability":"view"},{"type":"function","name":"symbol","inputs":[],"outputs":[{"name":"","type":"string","internalType":"string"}],"stateMutability":"view"},{"type":"function","name":"tokenURI","inputs":[{"name":"tokenId","type":"uint256","internalType":"uint256"}],"outputs":[{"name":"","type":"string","internalType":"string"}],"stateMutability":"view"},{"type":"function","name":"transferFrom","inputs":[{"name":"from","type":"address","internalType":"address"},{"name":"to","type":"address","internalType":"address"},{"name":"tokenId","type":"uint256","internalType":"uint256"}],"outputs":[],"stateMutability":"nonpayable"},{"type":"function","name":"transferOwnership","inputs":[{"name":"newOwner","type":"address","internalType":"address"}],"outputs":[],"stateMutability":"nonpayable"},{"type":"event","name":"Approval","inputs":[{"name":"owner","type":"address","indexed":true,"internalType":"address"},{"name":"approved","type":"address","indexed":true,"internalType":"address"},{"name":"tokenId","type":"uint256","indexed":true,"internalType":"uint256"}],"anonymous":false},{"type":"event","name":"ApprovalForAll","inputs":[{"name":"owner","type":"address","indexed":true,"internalType":"address"},{"name":"operator","type":"address","indexed":true,"internalType":"address"},{"name":"approved","type":"bool","indexed":false,"internalType":"bool"}],"anonymous":false},{"type":"event","name":"BatchMetadataUpdate","inputs":[{"name":"_fromTokenId","type":"uint256","indexed":false,"internalType":"uint256"},{"name":"_toTokenId","type":"uint256","indexed":false,"internalType":"uint256"}],"anonymous":false},{"type":"event","name":"MetadataSet","inputs":[{"name":"agentId","type":"uint256","indexed":true,"internalType":"uint256"},{"name":"indexedKey","type":"string","indexed":true,"internalType":"string"},{"name":"key","type":"string","indexed":false,"internalType":"string"},{"name":"value","type":"bytes","indexed":false,"internalType":"bytes"}],"anonymous":false},{"type":"event","name":"MetadataUpdate","inputs":[{"name":"_tokenId","type":"uint256","indexed":false,"internalType":"uint256"}],"anonymous":false},{"type":"event","name":"OwnershipTransferred","inputs":[{"name":"previousOwner","type":"address","indexed":true,"internalType":"address"},{"name":"newOwner","type":"address","indexed":true,"internalType":"address"}],"anonymous":false},{"type":"event","name":"Registered","inputs":[{"name":"agentId","type":"uint256","indexed":true,"internalType":"uint256"},{"name":"tokenURI","type":"string","indexed":false,"internalType":"string"},{"name":"owner","type":"address","indexed":true,"internalType":"address"}],"anonymous":false},{"type":"event","name":"Transfer","inputs":[{"name":"from","type":"address","indexed":true,"internalType":"address"},{"name":"to","type":"address","indexed":true,"internalType":"address"},{"name":"tokenId","type":"uint256","indexed":true,"internalType":"uint256"}],"anonymous":false},{"type":"event","name":"UriUpdated","inputs":[{"name":"agentId","type":"uint256","indexed":true,"internalType":"uint256"},{"name":"newUri","type":"string","indexed":false,"internalType":"string"},{"name":"updatedBy","type":"address","indexed":true,"internalType":"address"}],"anonymous":false},{"type":"error","name":"ERC721IncorrectOwner","inputs":[{"name":"sender","type":"address","internalType":"address"},{"name":"tokenId","type":"uint256","internalType":"uint256"},{"name":"owner","type":"address","internalType":"address"}]},{"type":"error","name":"ERC721InsufficientApproval","inputs":[{"name":"operator","type":"address","internalType":"address"},{"name":"tokenId","type":"uint256","internalType":"uint256"}]},{"type":"error","name":"ERC721InvalidApprover","inputs":[{"name":"approver","type":"address","internalType":"address"}]},{"type":"error","name":"ERC721InvalidOperator","inputs":[{"name":"operator","type":"address","internalType":"address"}]},{"type":"error","name":"ERC721InvalidOwner","inputs":[{"name":"owner","type":"address","internalType":"address"}]},{"type":"error","name":"ERC721InvalidReceiver","inputs":[{"name":"receiver","type":"address","internalType":"address"}]},{"type":"error","name":"ERC721InvalidSender","inputs":[{"name":"sender","type":"address","internalType":"address"}]},{"type":"error","name":"ERC721NonexistentToken","inputs":[{"name":"tokenId","type":"uint256","internalType":"uint256"}]},{"type":"error","name":"OwnableInvalidOwner","inputs":[{"name":"owner","type":"address","internalType":"address"}]},{"type":"error","name":"OwnableUnauthorizedAccount","inputs":[{"name":"account","type":"address","internalType":"address"}]}],"bytecode":{"object":"0x60806040523461037257604080519081016001600160401b03811182821017610288576040908152600d82526c4167656e744964656e7469747960981b602083015280519081016001600160401b0381118282101761028857604052600381526210525160ea1b602082015281516001600160401b038111610288575f54600181811c91168015610368575b602082101461026a57601f8111610306575b50602092601f82116001146102a757928192935f9261029c575b50508160011b915f199060031b1c1916175f555b80516001600160401b03811161028857600154600181811c9116801561027e575b602082101461026a57601f8111610207575b50602091601f82116001146101a7579181925f9261019c575b50508160011b915f199060031b1c1916176001555b33156101895760078054336001600160a01b03198216811790925560405191906001600160a01b03167f8be0079c531659141344cd1fd0a4f28419497f9722a3daafe3b4186f6b6457e05f80a35f6008556119a790816103778239f35b631e4fbdf760e01b5f525f60045260245ffd5b015190505f80610117565b601f1982169260015f52805f20915f5b8581106101ef575083600195106101d7575b505050811b0160015561012c565b01515f1960f88460031b161c191690555f80806101c9565b919260206001819286850151815501940192016101b7565b60015f527fb10e2d527612073b26eecdfd717e6a320cf44b4afac2b0732d9fcbe2b7fa0cf6601f830160051c81019160208410610260575b601f0160051c01905b81811061025557506100fe565b5f8155600101610248565b909150819061023f565b634e487b7160e01b5f52602260045260245ffd5b90607f16906100ec565b634e487b7160e01b5f52604160045260245ffd5b015190505f806100b7565b601f198216935f8052805f20915f5b8681106102ee57508360019596106102d6575b505050811b015f556100cb565b01515f1960f88460031b161c191690555f80806102c9565b919260206001819286850151815501940192016102b6565b5f80527f290decd9548b62a8d60345a988386fc84ba6bc95484008f6362f93160ef3e563601f830160051c8101916020841061035e575b601f0160051c01905b818110610353575061009d565b5f8155600101610346565b909150819061033d565b90607f169061008b565b5f80fdfe6080806040526004361015610012575f80fd5b5f3560e01c90816301ffc9a714610f4e5750806306fdde0314610eac578063081812fc14610e8e578063095ea7b314610da45780631aa3a00814610d3f57806323b872dd14610d2857806342842e0e14610cf9578063466648da14610ae35780635a753149146109b75780636352211e1461098757806370a0823114610936578063715018a6146108db5780638da5cb5b146108b35780638ea422861461057757806395d89b41146104ad578063a22cb46514610412578063b88d4fde146103b6578063c87b56dd14610397578063cb4799f214610287578063e985e9c514610230578063f2c298be146101985763f2fde38b1461010e575f80fd5b3461019457602036600319011261019457610127610ff7565b61012f611826565b6001600160a01b0316801561018157600780546001600160a01b0319811683179091556001600160a01b03167f8be0079c531659141344cd1fd0a4f28419497f9722a3daafe3b4186f6b6457e05f80a3005b631e4fbdf760e01b5f525f60045260245ffd5b5f80fd5b34610194576020366003190112610194576004356001600160401b038111610194576101ca60209136906004016110cf565b600854906101d782611149565b6008556101e482336114f9565b6101ee8183611706565b817fca52e62c367d81bb2e328eb795f7c7ba24afb478408a26c0e201d155c449bc4a60405185815280610225339588830190610fd3565b0390a3604051908152f35b3461019457604036600319011261019457610249610ff7565b61025161100d565b9060018060a01b03165f52600560205260405f209060018060a01b03165f52602052602060ff60405f2054166040519015158152f35b34610194576040366003190112610194576024356001600160401b0381116101945760206102ba819236906004016110cf565b6004355f526009825260405f20604051938285935191829101845e820190815203019020604051905f908054906102f0826110ed565b80855291600181169081156103705750600114610330575b61032c846103188186038261105d565b604051918291602083526020830190610fd3565b0390f35b5f90815260208120939250905b8082106103565750909150810160200161031882610308565b91926001816020925483858801015201910190929161033d565b60ff191660208087019190915292151560051b850190920192506103189150839050610308565b346101945760203660031901126101945761032c610318600435611400565b34610194576080366003190112610194576103cf610ff7565b6103d761100d565b90604435606435926001600160401b038411610194576103fe6104109436906004016110cf565b9261040a83838361116b565b3361184d565b005b346101945760403660031901126101945761042b610ff7565b60243590811515809203610194576001600160a01b031690811561049a57335f52600560205260405f20825f5260205260405f2060ff1981541660ff83161790556040519081527f17307eab39ab6107e8899845ad3d59bd9653f200f220920489ca2b5937696c3160203392a3005b50630b61174360e31b5f5260045260245ffd5b34610194575f366003190112610194576040515f6001546104cd816110ed565b808452906001811690811561055357506001146104f5575b61032c836103188185038261105d565b91905060015f527fb10e2d527612073b26eecdfd717e6a320cf44b4afac2b0732d9fcbe2b7fa0cf6915f905b808210610539575090915081016020016103186104e5565b919260018160209254838588010152019101909291610521565b60ff191660208086019190915291151560051b8401909101915061031890506104e5565b34610194576040366003190112610194576004356001600160401b038111610194576105a79036906004016110cf565b6024356001600160401b0381116101945736602382011215610194578060040135906001600160401b0382116107fb578160051b90604051926105ed602084018561105d565b835260246020840192820101903682116101945760248101925b82841061081a5784866008549061061d82611149565b60085561062a82336114f9565b6106348183611706565b817fca52e62c367d81bb2e328eb795f7c7ba24afb478408a26c0e201d155c449bc4a604051602081528061066d33956020830190610fd3565b0390a35f915b805183101561080f57602061068884836113d8565b51015192825f52600960205260208060405f206106a584866113d8565b515190604051938285935191829101845e8201908152030190208451946001600160401b0386116107fb576106e4866106de84546110ed565b84611348565b602090601f87116001146107945795806107189260019697985f92610789575b50508160011b915f199060031b1c19161790565b90555b61072581846113d8565b5151847f2c149ed548c6d2993cd73efe187df6eccabe4538091b33adbd25fafdb8a1468b61075384876113d8565b51519261076e6020610765878a6113d8565b51015191611397565b9361077e604051928392836113b3565b0390a3019190610673565b015190508880610704565b90601f19871691835f52815f20925f5b8181106107e35750916001969798929183889593106107cb575b505050811b01905561071b565b01515f1960f88460031b161c191690558780806107be565b828401518555600190940193602093840193016107a4565b634e487b7160e01b5f52604160045260245ffd5b602082604051908152f35b83356001600160401b038111610194578201604060231982360301126101945760405191604083018381106001600160401b038211176107fb5760405260248201356001600160401b0381116101945761087a90602436918501016110cf565b83526044820135926001600160401b038411610194576108a46020949360248695369201016110cf565b83820152815201930192610607565b34610194575f366003190112610194576007546040516001600160a01b039091168152602090f35b34610194575f366003190112610194576108f3611826565b600780546001600160a01b031981169091555f906001600160a01b03167f8be0079c531659141344cd1fd0a4f28419497f9722a3daafe3b4186f6b6457e08280a3005b34610194576020366003190112610194576001600160a01b03610957610ff7565b168015610974575f526003602052602060405f2054604051908152f35b6322718ad960e21b5f525f60045260245ffd5b346101945760203660031901126101945760206109a56004356114c5565b6040516001600160a01b039091168152f35b34610194576040366003190112610194576024356004356001600160401b0382116101945736602383011215610194578160040135916001600160401b0383116101945760248101906024843692010111610194577fb41beef75d9f8d55b985319b459e96f82453580af381391f1ad531eb8f8b5a3a906001600160a01b03610a3f846114c5565b16803314908115610abf575b508015610aa0575b610a5c9061130b565b610a70610a6a368684611099565b84611706565b83604051916020835281602084015260408301375f604085830101526040813395601f80199101168101030190a3005b50610a5c6001600160a01b03610ab585611125565b1633149050610a53565b5f90815260056020908152604080832033845290915290205460ff16905085610a4b565b34610194576060366003190112610194576004356024356001600160401b03811161019457610b169036906004016110cf565b906044356001600160401b03811161019457610b369036906004016110cf565b815f52600260205260018060a01b0360405f20541633148015610cc4575b8015610ca5575b610b649061130b565b815f52600960205260405f2060206040518092865180848901845e82019081520301902081516001600160401b0381116107fb57610ba6816106de84546110ed565b6020601f8211600114610c2257817f2c149ed548c6d2993cd73efe187df6eccabe4538091b33adbd25fafdb8a1468b949392610bf6925f91610c17575b508160011b915f199060031b1c19161790565b90555b610c0284611397565b93610c12604051928392836113b3565b0390a3005b905084015188610be3565b601f19821690835f52805f20915f5b818110610c8d57509183917f2c149ed548c6d2993cd73efe187df6eccabe4538091b33adbd25fafdb8a1468b96959460019410610c75575b5050811b019055610bf9565b8501515f1960f88460031b161c191690558780610c69565b9192602060018192868a015181550194019201610c31565b50610b646001600160a01b03610cba84611125565b1633149050610b5b565b505f828152600260209081526040808320546001600160a01b031683526005825280832033845290915290205460ff16610b54565b3461019457610410610d0a36611023565b9060405192610d1a60208561105d565b5f845261040a83838361116b565b3461019457610410610d3936611023565b9161116b565b34610194575f366003190112610194576020600854610d5d81611149565b600855610d6a81336114f9565b6040518281525f83820152817fca52e62c367d81bb2e328eb795f7c7ba24afb478408a26c0e201d155c449bc4a60403393a3604051908152f35b3461019457604036600319011261019457610dbd610ff7565b602435610dc9816114c5565b33151580610e7b575b80610e4e575b610e3b5781906001600160a01b0384811691167f8c5be1e5ebec7d5bd14f71427d1e84f3dd0314c0f7b2291e5b200ac8c7c3b9255f80a45f90815260046020526040902080546001600160a01b0319166001600160a01b03909216919091179055005b63a9fbf51f60e01b5f523360045260245ffd5b506001600160a01b0381165f90815260056020908152604080832033845290915290205460ff1615610dd8565b506001600160a01b038116331415610dd2565b346101945760203660031901126101945760206109a5600435611125565b34610194575f366003190112610194576040515f5f54610ecb816110ed565b80845290600181169081156105535750600114610ef25761032c836103188185038261105d565b5f8080527f290decd9548b62a8d60345a988386fc84ba6bc95484008f6362f93160ef3e563939250905b808210610f34575090915081016020016103186104e5565b919260018160209254838588010152019101909291610f1c565b34610194576020366003190112610194576004359063ffffffff60e01b821680920361019457602091632483248360e11b8114908115610f90575b5015158152f35b6380ac58cd60e01b811491508115610fc2575b8115610fb1575b5083610f89565b6301ffc9a760e01b14905083610faa565b635b5e139f60e01b81149150610fa3565b805180835260209291819084018484015e5f828201840152601f01601f1916010190565b600435906001600160a01b038216820361019457565b602435906001600160a01b038216820361019457565b6060906003190112610194576004356001600160a01b038116810361019457906024356001600160a01b0381168103610194579060443590565b90601f801991011681019081106001600160401b038211176107fb57604052565b6001600160401b0381116107fb57601f01601f191660200190565b9291926110a58261107e565b916110b3604051938461105d565b829481845281830111610194578281602093845f960137010152565b9080601f83011215610194578160206110ea93359101611099565b90565b90600182811c9216801561111b575b602083101461110757565b634e487b7160e01b5f52602260045260245ffd5b91607f16916110fc565b61112e816114c5565b505f908152600460205260409020546001600160a01b031690565b5f1981146111575760010190565b634e487b7160e01b5f52601160045260245ffd5b6001600160a01b03909116919082156112f8575f828152600260205260409020546001600160a01b031692829033151580611263575b5084611230575b805f52600360205260405f2060018154019055815f52600260205260405f20816bffffffffffffffffffffffff60a01b825416179055847fddf252ad1be2c89b69c2b068fc378daa952ba7f163c4a11628f55a4df523b3ef5f80a46001600160a01b031680830361121857505050565b6364283d7b60e01b5f5260045260245260445260645ffd5b5f82815260046020526040902080546001600160a01b0319169055845f52600360205260405f205f1981540190556111a8565b909150806112a7575b156112795782905f6111a1565b828461129157637e27328960e01b5f5260045260245ffd5b63177e802f60e01b5f523360045260245260445ffd5b5033841480156112d6575b8061126c57505f838152600460205260409020546001600160a01b0316331461126c565b505f84815260056020908152604080832033845290915290205460ff166112b2565b633250574960e11b5f525f60045260245ffd5b1561131257565b60405162461bcd60e51b815260206004820152600e60248201526d139bdd08185d5d1a1bdc9a5e995960921b6044820152606490fd5b601f821161135557505050565b5f5260205f20906020601f840160051c8301931061138d575b601f0160051c01905b818110611382575050565b5f8155600101611377565b909150819061136e565b602090604051918183925191829101835e81015f815203902090565b90916113ca6110ea93604084526040840190610fd3565b916020818403910152610fd3565b80518210156113ec5760209160051b010190565b634e487b7160e01b5f52603260045260245ffd5b611409816114c5565b505f52600660205260405f2060405190815f825492611427846110ed565b80845293600181169081156114a3575060011461145f575b5061144c9250038261105d565b5f60405161145b60208261105d565b5290565b90505f9291925260205f20905f915b81831061148757505090602061144c928201015f61143f565b602091935080600191548385880101520191019091839261146e565b90506020925061144c94915060ff191682840152151560051b8201015f61143f565b5f818152600260205260409020546001600160a01b03169081156114e7575090565b637e27328960e01b5f5260045260245ffd5b906020906040519061150b838361105d565b5f82526001600160a01b0384169384156112f8575f8281526002855260409020546001600160a01b031680151590816116d5575b865f526003865260405f2060018154019055835f526002865260405f20876bffffffffffffffffffffffff60a01b8254161790558387827fddf252ad1be2c89b69c2b068fc378daa952ba7f163c4a11628f55a4df523b3ef5f80a4506116c2573b6115ab575b50505050565b916115e891819495936040519384928392630a85bd0160e11b84523360048501525f60248501526044840152608060648401526084830190610fd3565b03815f885af15f9181611682575b5061164b5750503d15611643573d9061160e8261107e565b9161161c604051938461105d565b82523d5f8284013e5b815191826116405783633250574960e11b5f5260045260245ffd5b01fd5b606090611625565b909291506001600160e01b03191663757a42ff60e11b0161167057505f8080806115a5565b633250574960e11b5f5260045260245ffd5b9091508381813d83116116bb575b61169a818361105d565b8101031261019457516001600160e01b03198116810361019457905f6115f6565b503d611690565b6339e3563760e11b5f525f60045260245ffd5b5f8481526004602052604080822080546001600160a01b031916905582825260038852902080545f1901905561153f565b919091805f52600660205260405f2083516001600160401b0381116107fb57611733816106de84546110ed565b6020601f821160011461179e57816020949392611787927ff8e1a15aba9398e019f0b49df1a4fde98ee17ae345cb5f6b5e2c27f5033e8ce797985f926117935750508160011b915f199060031b1c19161790565b90555b604051908152a1565b015190505f80610704565b601f19821695835f52815f20965f5b81811061180e575096600192849260209796957ff8e1a15aba9398e019f0b49df1a4fde98ee17ae345cb5f6b5e2c27f5033e8ce7999a106117f6575b505050811b01905561178a565b01515f1960f88460031b161c191690555f80806117e9565b838301518955600190980197602093840193016117ad565b6007546001600160a01b0316330361183a57565b63118cdaa760e01b5f523360045260245ffd5b823b61185b575b5050505050565b604051630a85bd0160e11b81526001600160a01b0391821660048201529181166024830152604482019390935260806064820152911691602090829081906118a7906084830190610fd3565b03815f865af15f918161192c575b5061190a57503d15611903573d6118cb8161107e565b906118d9604051928361105d565b81523d5f602083013e5b805190816118fe5782633250574960e11b5f5260045260245ffd5b602001fd5b60606118e3565b6001600160e01b03191663757a42ff60e11b0161167057505f80808080611854565b9091506020813d602011611969575b816119486020938361105d565b8101031261019457516001600160e01b03198116810361019457905f6118b5565b3d915061193b56fea2646970667358221220a37463005ec0770ee5ee83a1c107cb3630905297959991069dc1cb1902e6213f64736f6c634300081c0033","linkReferences":{}},"methodIdentifiers":{"approve(address,uint256)":"095ea7b3","balanceOf(address)":"70a08231","getApproved(uint256)":"081812fc","getMetadata(uint256,string)":"cb4799f2","isApprovedForAll(address,address)":"e985e9c5","name()":"06fdde03","owner()":"8da5cb5b","ownerOf(uint256)":"6352211e","register()":"1aa3a008","register(string)":"f2c298be","register(string,(string,bytes)[])":"8ea42286","renounceOwnership()":"715018a6","safeTransferFrom(address,address,uint256)":"42842e0e","safeTransferFrom(address,address,uint256,bytes)":"b88d4fde","setAgentUri(uint256,string)":"5a753149","setApprovalForAll(address,bool)":"a22cb465","setMetadata(uint256,string,bytes)":"466648da","supportsInterface(bytes4)":"01ffc9a7","symbol()":"95d89b41","tokenURI(uint256)":"c87b56dd","transferFrom(address,address,uint256)":"23b872dd","transferOwnership(address)":"f2fde38b"},"id":59}